00COTAHIST.2026BOVESPA 20260227                                                                                                                                                                                                                      
012026022702LAND3       010TERRASANTAPAON      NM   R$  000000000086800000000009190000000000868000000000089900000000008970000000000885000000000089800111000000000000020000000000000017983000000000000000009999123100000010000000000000BRLANDACNOR9104
012026022702LAVV3       010LAVVI       ON      NM   R$  000000000185000000000018530000000001821000000000183700000000018410000000001841000000000184302335000000000000698200000000001282604200000000000000009999123100000010000000000000BRLAVVACNOR4120
012026022702LEVE3       010METAL LEVE  ON      NM   R$  000000000367700000000036920000000003609000000000364500000000036150000000003615000000000363002056000000000000368400000000001342930000000000000000009999123100000010000000000000BRLEVEACNOR2202
012026022702LJQQ3       010QUERO-QUERO ON      NM   R$  000000000022000000000002210000000000214000000000021700000000002150000000000215000000000021603134000000000004145100000000000899793100000000000000009999123100000010000000000000BRLJQQACNOR5105
012026022702MRVE3       010MRV         ON      NM   R$  000000000103500000000010370000000001014000000000102400000000010240000000001024000000000102510392000000000005998200000000006146674200000000000000009999123100000010000000000000BRMRVEACNOR2128
012026022702RECV3       010PETRORECSA  ON      NM   R$  000000000122600000000012400000000001219000000000123000000000012320000000001232000000000123507141000000000002934800000000003612155800000000000000009999123100000010000000000000BRRECVACNOR3110
012026022702REDE3       010REDE ENERGIAON           R$  000000000063500000000006350000000000633000000000063400000000006330000000000632000000000063300014000000000000002100000000000001332300000000000000009999123100000010000000000000BRREDEACNOR7134
012026022702B3SA3       010B3          ON      NM   R$  000000000180500000000018360000000001783000000000180100000000017900000000001789000000000179239881000000000050947300000000091761201500000000000000009999123100000010000000000000BRB3SAACNOR6140
012026022702BIED3       010BIOMA EDUC  ON      MA   R$  000000000062000000000006770000000000600000000000063300000000006760000000000610000000000067600021000000000000005400000000000003419100000000000000009999123100000010000000000000BRBIEDACNOR2101
012026022702PLAS3       010PLASCAR PARTON           R$  000000000045100000000004510000000000451000000000045100000000004510000000000445000000000046900002000000000000000200000000000000090200000000000000009999123100000010000000000000BRPLASACNOR2106
012026022702PLPL3       010PLANOEPLANO ON      NM   R$  000000000159400000000015940000000001532000000000155200000000015470000000001533000000000154909972000000000003325100000000005161679800000000000000009999123100000010000000000000BRPLPLACNOR5106
012026022702RAIL3       010RUMO S.A.   ON      NM   R$  000000000165300000000016540000000001592000000000160500000000015970000000001597000000000159820184000000000014721600000000023637517300000000000000009999123100000010000000000000BRRAILACNOR9106
012026022702SBFG3       010GRUPO SBF   ON      NM   R$  000000000129000000000012990000000001258000000000127300000000012660000000001259000000000126603636000000000001584100000000002016637700000000000000009999123100000010000000000000BRSBFGACNOR1104
012026022702SBSP3       010SABESP      ON      NM   R$  000000001540000000000155520000000015210000000001538900000000153890000000015388000000001538912092000000000004512600000000069446412700000000000000009999123100000010000000000000BRSBSPACNOR5165
012026022702SYNE3       010SYN PROP TECON      NM   R$  000000000048200000000004860000000000477000000000048000000000004790000000000478000000000047900915000000000000442600000000000212604000000000000000009999123100000010000000000000BRSYNEACNOR2107
012026022702GOLL54      010GOL         PN *P        R$  000000000112000000000011740000000001119000000000114800000000011490000000001149000000000115000347000000000469841000000000000539793525000000000000009999123100010000000000000000BRGOLLA01PR5100
012026022702GRND3       010GRENDENE    ON      NM   R$  000000000050700000000005150000000000504000000000051000000000005100000000000508000000000051011741000000000005418700000000002764584900000000000000009999123100000010000000000000BRGRNDACNOR3182
012026022702TAEE11      010TAESA       UNT     N2   R$  000000000444000000000044470000000004377000000000440600000000044180000000004395000000000441807297000000000001631800000000007189846100000000000000009999123100000010000000000000BRTAEECDAM10153
012026022702TAEE3       010TAESA       ON      N2   R$  000000000144000000000014660000000001440000000000145400000000014590000000001452000000000145900349000000000000066300000000000096416700000000000000009999123100000010000000000000BRTAEEACNOR9153
012026022702TAEE4       010TAESA       PN      N2   R$  000000000147500000000014850000000001466000000000147400000000014750000000001469000000000147500511000000000000107500000000000158473300000000000000009999123100000010000000000000BRTAEEACNPR6153
012026022702TASA3       010TAURUS ARMASON      N2   R$  000000000059800000000005980000000000572000000000058400000000005790000000000581000000000058500115000000000000020700000000000012092100000000000000009999123100000010000000000000BRTASAACNOR7106
012026022702TASA4       010TAURUS ARMASPN      N2   R$  000000000060500000000006070000000000575000000000058700000000005830000000000583000000000058801848000000000000601200000000000353504900000000000000009999123100000010000000000000BRTASAACNPR4106
012026022702TCSA3       010TECNISA     ON      NM   R$  000000000015800000000001620000000000150000000000015800000000001580000000000157000000000015800269000000000000170300000000000026909400000000000000009999123100000010000000000000BRTCSAACNOR3112
012026022702MDIA3       010M.DIASBRANCOON  ED  NM   R$  000000000239800000000024030000000002245000000000232100000000023400000000002335000000000234114339000000000004358100000000010117151000000000000000009999123100000010000000000000BRMDIAACNOR7151
012026022702MDNE3       010MOURA DUBEUXON      NM   R$  000000000337000000000034130000000003295000000000333000000000032950000000003290000000000330207694000000000001353400000000004507178900000000000000009999123100000010000000000000BRMDNEACNOR9104
012026022702MEAL3       010IMC S/A     ON      NM   R$  000000000011900000000001190000000000115000000000011600000000001160000000000115000000000011600152000000000000283700000000000033093500000000000000009999123100000010000000000000BRMEALACNOR9105
012026022702MELK3       010MELNICK     ON      NM   R$  000000000040600000000004060000000000398000000000040100000000004030000000000403000000000040401777000000000000448500000000000179866500000000000000009999123100000010000000000000BRMELKACNOR8116
012026022702MGEL4       010MANGELS INDLPN           R$  000000000062000000000006290000000000620000000000062400000000006290000000000602000000000062400008000000000000001900000000000001186700000000000000009999123100000010000000000000BRMGELACNPR3147
012026022702EALT4       010ACO ALTONA  PN           R$  000000000144400000000014750000000001420000000000144400000000014490000000001436000000000145000049000000000000019900000000000028746500000000000000009999123100000010000000000000BREALTACNPR1140
012026022702ECOR3       010ECORODOVIAS ON      NM   R$  000000000106900000000010770000000001040000000000106200000000010710000000001070000000000107213966000000000006944900000000007379786400000000000000009999123100000010000000000000BRECORACNOR8122
012026022702GGBR4       010GERDAU      PN      N1   R$  000000000209800000000020990000000002073000000000208800000000020990000000002095000000000210016918000000000015728400000000032850129300000000000000009999123100000010000000000000BRGGBRACNPR8198
012026022702DESK3       010DESKTOP     ON      NM   R$  000000000132800000000013510000000001316000000000133000000000013240000000001324000000000133604836000000000001077300000000001433724500000000000000009999123100000010000000000000BRDESKACNOR2106
012026022702DEXP3       010DEXXOS PAR  ON      N1   R$  000000000075900000000007650000000000752000000000075600000000007520000000000752000000000075700462000000000000077100000000000058343300000000000000009999123100000010000000000000BRDEXPACNOR1109
012026022702DEXP4       010DEXXOS PAR  PN      N1   R$  000000000075700000000007570000000000751000000000075300000000007520000000000752000000000075600011000000000000003500000000000002635800000000000000009999123100000010000000000000BRDEXPACNPR8109
012026022702DIRR3       010DIRECIONAL  ON      NM   R$  000000000164900000000016540000000001605000000000163300000000016320000000001631000000000163715300000000000005094000000000008319702500000000000000009999123100000010000000000000BRDIRRACNOR0123
012026022702ALUP3       010ALUPAR      ON      N2   R$  000000000134700000000013470000000001312000000000132800000000013320000000001306000000000133300041000000000000008100000000000010757600000000000000009999123100000010000000000000BRALUPACNOR8126
012026022702ALUP4       010ALUPAR      PN      N2   R$  000000000112900000000011400000000001116000000000112600000000011390000000001119000000000113900042000000000000006200000000000006987100000000000000009999123100000010000000000000BRALUPACNPR5126
012026022702AMAR3       010LOJAS MARISAON      NM   R$  000000000009000000000000910000000000087000000000008800000000000900000000000089000000000009000290000000000000417800000000000037129100000000000000009999123100000010000000000000BRAMARACNOR4115
012026022702AMOB3       010AUTOMOB     ON      NM   R$  000000000132000000000013500000000001307000000000132600000000013350000000001335000000000133600097000000000000020100000000000026662900000000000000009999123100000010000000000000BRAMOBACNOR9101
012026022702ANIM3       010ANIMA       ON      NM   R$  000000000050900000000005180000000000498000000000050800000000005130000000000512000000000051308143000000000005704600000000002901547100000000000000009999123100000010000000000000BRANIMACNOR6110
012026022702HYPE3       010HYPERA      ON      NM   R$  000000000236900000000023730000000002308000000000232000000000023080000000002308000000000230910327000000000002974500000000006902112900000000000000009999123100000010000000000000BRHYPEACNOR0150
012026022702LOGG3       010LOG COM PROPON      NM   R$  000000000283500000000028610000000002782000000000283800000000028350000000002835000000000284703973000000000000744000000000002111729700000000000000009999123100000010000000000000BRLOGGACNOR7112
012026022702LOGN3       010LOG-IN      ON      NM   R$  000000000323500000000032350000000003203000000000321900000000032250000000003203000000000323200033000000000000004300000000000013845700000000000000009999123100000010000000000000BRLOGNACNOR3105
012026022702LPSB3       010LOPES BRASILON      NM   R$  000000000018800000000001890000000000180000000000018400000000001800000000000180000000000018200340000000000000140600000000000025874000000000000000009999123100000010000000000000BRLPSBACNOR0116
012026022702LREN3       010LOJAS RENNERON      NM   R$  000000000159400000000016110000000001558000000000157500000000015580000000001557000000000156515003000000000009657900000000015217160700000000000000009999123100000010000000000000BRLRENACNOR1228
012026022702MTRE3       010MITRE REALTYON      NM   R$  000000000041000000000004110000000000402000000000040400000000004060000000000404000000000040600808000000000000538400000000000217856400000000000000009999123100000010000000000000BRMTREACNOR6131
012026022702GSHP3       010GENERALSHOPPON           R$  000000000030000000000003000000000000290000000000029200000000002900000000000300000000000035000004000000000000000700000000000000204600000000000000009999123100000010000000000000BRGSHPACNOR7102
012026022702HAGA3       010HAGA S/A    ON           R$  000000000021800000000002230000000000197000000000021000000000002190000000000212000000000021800036000000000000013500000000000002835500000000000000009999123100000010000000000000BRHAGAACNOR7103
012026022702ARML3       010ARMAC       ON      NM   R$  000000000059700000000006060000000000582000000000059500000000005900000000000589000000000059002958000000000000922000000000000549187200000000000000009999123100000010000000000000BRARMLACNOR1117
012026022702ARND3       010ARANDU      ON      NM   R$  000000000007700000000000770000000000077000000000007700000000000770000000000076000000000008100002000000000000000300000000000000023100000000000000009999123100000010000000000000BRARNDACNOR6100
012026022702ASAI3       010ASSAI       ON      NM   R$  000000000093300000000009460000000000920000000000093400000000009340000000000934000000000093517193000000000010942200000000010229048200000000000000009999123100000010000000000000BRASAIACNOR0109
012026022702MTSA4       010METISA      PN           R$  000000000611600000000062070000000006061000000000617000000000062070000000004500000000000621000026000000000000003600000000000022212900000000000000009999123100000010000000000000BRMTSAACNPR9079
012026022702MULT3       010MULTIPLAN   ON      N2   R$  000000000354100000000035700000000003499000000000352800000000035200000000003508000000000352018045000000000005524100000000019493117900000000000000009999123100000010000000000000BRMULTACNOR5145
012026022702RENT3       010LOCALIZA    ON      NM   R$  000000000505500000000052380000000005055000000000513600000000050760000000005076000000000508144289000000000016578500000000085155807100000000000000009999123100000010000000000000BRRENTACNOR4205
012026022702RENT4       010LOCALIZA    PN      NM   R$  000000000488500000000050520000000004881000000000491800000000048810000000004880000000000488800800000000000000276400000000001359419000000000000000009999123100000010000000000000BRRENTACNPR1100
012026022702ITSA3       010ITAUSA      ON      N1   R$  000000000146000000000014600000000001430000000000144000000000014320000000001431000000000143400440000000000000135900000000000195722100000000000000009999123100000010000000000000BRITSAACNOR0455
012026022702HAGA4       010HAGA S/A    PN           R$  000000000014600000000001480000000000143000000000014500000000001470000000000145000000000014700027000000000000040500000000000005901200000000000000009999123100000010000000000000BRHAGAACNPR4103
012026022702HAPV3       010HAPVIDA     ON      NM   R$  000000000106900000000011120000000001043000000000106700000000010490000000001049000000000105017970000000000010395400000000011093994000000000000000009999123100000010000000000000BRHAPVACNOR4119
012026022702ISAE3       010ISA ENERGIA ON  EJ  N1   R$  000000000348900000000034890000000003400000000000342600000000034290000000003001000000000343000037000000000000005400000000000018501900000000000000009999123100000010000000000000BRISAEACNOR2109
012026022702ISAE4       010ISA ENERGIA PN  EJ  N1   R$  000000000288500000000028900000000002826000000000285000000000028460000000002846000000000285408754000000000002130900000000006074031400000000000000009999123100000010000000000000BRISAEACNPR9109
012026022702JSLG3       010JSL         ON      NM   R$  000000000081600000000008250000000000772000000000079500000000008250000000000815000000000082503275000000000001837200000000001461061800000000000000009999123100000010000000000000BRJSLGACNOR2123
012026022702MATD3       010MATER DEI   ON      NM   R$  000000000061000000000006150000000000585000000000060200000000005960000000000596000000000060000525000000000000148400000000000089477300000000000000009999123100000010000000000000BRMATDACNOR4106
012026022702MBRF3       010MARFRIG     ON      NM   R$  000000000202000000000021000000000002000000000000207100000000020680000000002068000000000206918304000000000010485400000000021717083600000000000000009999123100000010000000000000BRMBRFACNOR1100
012026022702KEPL3       010KEPLER WEBERON      NM   R$  000000000096400000000009870000000000944000000000096300000000009710000000000970000000000097207287000000000003932800000000003787740200000000000000009999123100000010000000000000BRKEPLACNOR1069
012026022702KLBN11      010KLABIN S/A  UNT     N2   R$  000000000209000000000020900000000002050000000000205800000000020560000000002056000000000205806884000000000005774300000000011883649600000000000000009999123100000010000000000000BRKLBNCDAM18151
012026022702ITSA4       010ITAUSA      PN      N1   R$  000000000145500000000014600000000001425000000000143300000000014270000000001427000000000142830230000000000036363000000000052113989400000000000000009999123100000010000000000000BRITSAACNPR7455
012026022702SANB11      010SANTANDER BRUNT          R$  000000000342000000000034270000000003340000000000337300000000033500000000003348000000000335010572000000000003866700000000013045362900000000000000009999123100000010000000000000BRSANBCDAM13172
012026022702SANB3       010SANTANDER BRON           R$  000000000168100000000016980000000001650000000000166700000000016500000000001648000000000165000466000000000000070800000000000118069700000000000000009999123100000010000000000000BRSANBACNOR8179
012026022702SANB4       010SANTANDER BRPN           R$  000000000173900000000017390000000001694000000000170800000000016960000000001696000000000169700547000000000000099600000000000170183400000000000000009999123100000010000000000000BRSANBACNPR5179
012026022702PRIO3       010PETRORIO    ON  ATZ NM   R$  000000000527500000000054490000000005213000000000532900000000054490000000005426000000000545030651000000000019125000000000101935051700000000000000009999123100000010000000000000BRPRIOACNOR1112
012026022702RANI3       010IRANI       ON      NM   R$  000000000096800000000009850000000000957000000000097400000000009840000000000979000000000098403610000000000000846600000000000825309100000000000000009999123100000010000000000000BRRANIACNOR5079
012026022702RAPT3       010RANDON PART ON      N1   R$  000000000066200000000006700000000000660000000000066400000000006680000000000666000000000066800015000000000000003100000000000002058700000000000000009999123100000010000000000000BRRAPTACNOR7166
012026022702RAPT4       010RANDON PART PN      N1   R$  000000000067600000000006780000000000663000000000066700000000006640000000000664000000000066905118000000000003655100000000002439564800000000000000009999123100000010000000000000BRRAPTACNPR4166
012026022702GGPS3       010GPS         ON      NM   R$  000000000187500000000018900000000001841000000000185400000000018410000000001840000000000185010534000000000003495100000000006481200200000000000000009999123100000010000000000000BRGGPSACNOR9106
012026022702GMAT3       010GRUPO MATEUSON      NM   R$  000000000057600000000005810000000000570000000000057300000000005720000000000572000000000057406684000000000009261900000000005314990100000000000000009999123100000010000000000000BRGMATACNOR7109
012026022702GOAU3       010GERDAU MET  ON      N1   R$  000000000091200000000009120000000000896000000000090100000000009030000000000900000000000090300513000000000000140600000000000126682400000000000000009999123100000010000000000000BRGOAUACNOR1274
012026022702GOAU4       010GERDAU MET  PN      N1   R$  000000000094400000000009470000000000929000000000093300000000009340000000000931000000000093510823000000000010322200000000009632067000000000000000009999123100000010000000000000BRGOAUACNPR8275
012026022702IRBR3       010IRBBRASIL REON      NM   R$  000000000630000000000063200000000006181000000000621300000000061900000000006187000000000619003586000000000001368000000000008500605300000000000000009999123100000010000000000000BRIRBRACNOR4113
012026022702MWET4       010WETZEL S/A  PN           R$  000000000109900000000011690000000001070000000000111800000000010700000000001041000000000116400006000000000000000900000000000001006400000000000000009999123100000010000000000000BRMWETACNPR3118
012026022702MYPK3       010IOCHP-MAXIONON      NM   R$  000000000104500000000010580000000001042000000000105000000000010550000000001054000000000105503158000000000000987700000000001037595500000000000000009999123100000010000000000000BRMYPKACNOR7158
012026022702NATU3       010NATURA      ON      NM   R$  000000000096100000000009610000000000909000000000092500000000009110000000000910000000000091211091000000000012331900000000011416034000000000000000009999123100000010000000000000BRNATUACNOR6137
012026022702PRNR3       010PRINER      ON      NM   R$  000000000218800000000021930000000002161000000000217700000000021730000000002172000000000217301890000000000000376200000000000819274900000000000000009999123100000010000000000000BRPRNRACNOR4111
012026022702PSSA3       010PORTO SEGUROON      NM   R$  000000000526700000000052850000000005182000000000522800000000052330000000005231000000000523310922000000000002403500000000012566960800000000000000009999123100000010000000000000BRPSSAACNOR7161
012026022702RIAA3       010RIACHUELO   ON      NM   R$  000000000101500000000010270000000000992000000000101200000000010030000000001002000000000100605827000000000001905300000000001928248100000000000000009999123100000010000000000000BRRIAAACNOR2100
012026022702JALL3       010JALLESMACHADON      NM   R$  000000000030800000000003080000000000300000000000030300000000003040000000000302000000000030400518000000000000727100000000000220650100000000000000009999123100000010000000000000BRJALLACNOR0106
012026022702JHSF3       010JHSF PART   ON  ED  NM   R$  000000000099900000000010010000000000983000000000099200000000009920000000000991000000000099305457000000000010449200000000010369664900000000000000009999123100000010000000000000BRJHSFACNOR2157
012026022702BSLI3       010BRB BANCO   ON           R$  000000000046500000000004810000000000462000000000047200000000004800000000000475000000000048000075000000000000031300000000000014774700000000000000009999123100000010000000000000BRBSLIACNOR5198
012026022702BSLI4       010BRB BANCO   PN           R$  000000000048000000000004860000000000478000000000048200000000004800000000000477000000000048900062000000000000031400000000000015157600000000000000009999123100000010000000000000BRBSLIACNPR2198
012026022702FIQE3       010UNIFIQUE    ON      NM   R$  000000000052500000000005320000000000520000000000052500000000005280000000000528000000000053001006000000000000549500000000000288903100000000000000009999123100000010000000000000BRFIQEACNOR5112
012026022702FLRY3       010FLEURY      ON      NM   R$  000000000172000000000017240000000001682000000000169800000000016820000000001681000000000168508097000000000003237400000000005498797800000000000000009999123100000010000000000000BRFLRYACNOR5143
012026022702OBTC3       010ORANJEBTC   ON           R$  000000000071000000000007240000000000684000000000070400000000007150000000000711000000000071501720000000000000439000000000000309480400000000000000009999123100000010000000000000BROBTCACNOR0100
012026022702ODPV3       010ODONTOPREV  ON      NM   R$  000000000161500000000016570000000001391000000000152300000000014640000000001464000000000147047210000000000040796300000000062157091600000000000000009999123100000010000000000000BRODPVACNOR4213
012026022702OFSA3       010OUROFINO S/AON      NM   R$  000000000244200000000024500000000002442000000000244900000000024500000000002401000000000247000003000000000000003500000000000008574200000000000000009999123100000010000000000000BROFSAACNOR7122
012026022702PTBL3       010PORTOBELLO  ON      NM   R$  000000000033700000000003370000000000322000000000032600000000003220000000000321000000000032200368000000000000291600000000000095209800000000000000009999123100000010000000000000BRPTBLACNOR8132
012026022702PTNT4       010PETTENATI   PN           R$  000000000084000000000008400000000000837000000000083700000000008370000000000837000000000084200007000000000000005200000000000004356900000000000000009999123100000010000000000000BRPTNTACNPR3049
012026022702ESPA3       010ESPACOLASER ON      NM   R$  000000000011200000000001130000000000107000000000010800000000001070000000000107000000000010800388000000000000537500000000000058278000000000000000009999123100000010000000000000BRESPAACNOR7105
012026022702ETER3       010ETERNIT     ON      NM   R$  000000000040200000000004050000000000399000000000040100000000004020000000000402000000000040400248000000000000079300000000000031824000000000000000009999123100000010000000000000BRETERACNOR3246
012026022702EUCA4       010EUCATEX     PN      N1   R$  000000000214900000000021700000000002122000000000215100000000021700000000002138000000000217000112000000000000017700000000000038073700000000000000009999123100000010000000000000BREUCAACNPR8046
012026022702EVEN3       010EVEN        ON      NM   R$  000000000084100000000008460000000000829000000000083900000000008350000000000835000000000084002296000000000000489400000000000410829300000000000000009999123100000010000000000000BREVENACNOR8121
012026022702CAMB3       010CAMBUCI     ON           R$  000000000095000000000009600000000000941000000000095400000000009410000000000941000000000095600079000000000000024300000000000023182800000000000000009999123100000010000000000000BRCAMBACNOR4136
012026022702CAML3       010CAMIL       ON      NM   R$  000000000069100000000006970000000000680000000000068800000000006880000000000687000000000068801949000000000000764500000000000526312200000000000000009999123100000010000000000000BRCAMLACNOR3134
012026022702CASH3       010MELIUZ      ON      NM   R$  000000000035100000000003540000000000338000000000034200000000003450000000000340000000000034501974000000000002139000000000000732379800000000000000009999123100000010000000000000BRCASHACNOR8107
012026022702CBAV3       010CBA         ON      NM   R$  000000000101800000000010200000000001015000000000101600000000010150000000001015000000000101603574000000000009745300000000009903203700000000000000009999123100000010000000000000BRCBAVACNOR5104
012026022702VITT3       010VITTIA      ON      NM   R$  000000000041800000000004180000000000408000000000041200000000004080000000000408000000000041200722000000000000171400000000000070749400000000000000009999123100000010000000000000BRVITTACNOR4113
012026022702VIVA3       010VIVARA S.A. ON      NM   R$  000000000321600000000032440000000003115000000000320200000000031150000000003115000000000312012870000000000006839700000000021904328800000000000000009999123100000010000000000000BRVIVAACNOR0109
012026022702VIVR3       010VIVER       ON  ES  NM   R$  000000000005200000000000540000000000049000000000005000000000000490000000000049000000000005000186000000000000317400000000000015920200000000000000009999123100000010000000000000BRVIVRACNOR4126
012026022702VIVT3       010TELEF BRASILON  EJ       R$  000000000423900000000043470000000004221000000000431500000000043180000000004318000000000432029580000000000010682400000000046104508200000000000000009999123100000010000000000000BRVIVTACNOR0200
012026022702CEAB3       010CEA MODAS   ON      NM   R$  000000000131200000000013180000000001281000000000129900000000012940000000001292000000000129516274000000000008218200000000010676596000000000000000009999123100000010000000000000BRCEABACNOR1105
012026022702CSNA3       010SID NACIONALON           R$  000000000085700000000008620000000000849000000000085600000000008620000000000860000000000086209537000000000010525600000000009011248500000000000000009999123100000010000000000000BRCSNAACNOR6264
012026022702ALLD3       010ALLIED      ON      NM   R$  000000000075500000000007550000000000729000000000073700000000007290000000000729000000000073004743000000000000826400000000000609486700000000000000009999123100000010000000000000BRALLDACNOR3110
012026022702ALOS3       010ALLOS       ON  ED  NM   R$  000000000326600000000032730000000003225000000000326000000000032690000000003264000000000326914273000000000004813600000000015694947000000000000000009999123100000010000000000000BRALOSACNOR5119
012026022702ALPA3       010ALPARGATAS  ON      N1   R$  000000000130600000000013200000000001290000000000130100000000013200000000001320000000000133300078000000000000032900000000000042806900000000000000009999123100000010000000000000BRALPAACNOR0234
012026022702ALPA4       010ALPARGATAS  PN      N1   R$  000000000152800000000015480000000001517000000000153000000000015370000000001530000000000153706471000000000001545500000000002365802400000000000000009999123100000010000000000000BRALPAACNPR7235
012026022702ALPK3       010ESTAPAR     ON      NM   R$  000000000051800000000005220000000000500000000000051000000000005020000000000502000000000050800540000000000000160800000000000082126700000000000000009999123100000010000000000000BRALPKACNOR9101
012026022702VALE3       010VALE        ON  ATZ NM   R$  000000000891400000000089500000000008826000000000887800000000088470000000008845000000000884727449000000000017328300000000153846346700000000000000009999123100000010000000000000BRVALEACNOR0219
012026022702VBBR3       010VIBRA       ON      NM   R$  000000000306000000000030600000000002947000000000299200000000029920000000002989000000000299321365000000000015824700000000047347726600000000000000009999123100000010000000000000BRVBBRACNOR1114
012026022702BNBR3       010NORD BRASIL ON           R$  000000001222000000000122200000000012220000000001222000000000122200000000012100000000001222000001000000000000000100000000000001222000000000000000009999123100000010000000000000BRBNBRACNOR8211
012026022702BRKM5       010BRASKEM     PNA     N1   R$  000000000094000000000009620000000000940000000000095400000000009590000000000957000000000095904607000000000002130500000000002033734800000000000000009999123100000010000000000000BRBRKMACNPA4123
012026022702BRSR3       010BANRISUL    ON      N1   R$  000000000196700000000020010000000001950000000000197700000000020010000000001980000000000202100042000000000000005700000000000011270700000000000000009999123100000010000000000000BRBRSRACNOR3197
012026022702BRSR6       010BANRISUL    PNB     N1   R$  000000000187400000000018740000000001851000000000185700000000018580000000001854000000000185905689000000000001660800000000003085642600000000000000009999123100000010000000000000BRBRSRACNPB4200
012026022702CSED3       010CRUZEIRO EDUON      NM   R$  000000000067200000000006810000000000655000000000067000000000006640000000000664000000000066502849000000000000777800000000000521615500000000000000009999123100000010000000000000BRCSEDACNOR9107
012026022702CSMG3       010COPASA      ON      NM   R$  000000000552300000000055300000000005400000000000546500000000054700000000005470000000000547314119000000000003331700000000018209093800000000000000009999123100000010000000000000BRCSMGACNOR5183
012026022702EKTR4       010ELEKTRO     PN           R$  000000000400900000000040090000000004009000000000400900000000040090000000003931000000000401000002000000000000000200000000000000801800000000000000009999123100000010000000000000BREKTRACNPR7174
012026022702EMAE4       010EMAE        PN           R$  000000000479900000000048950000000004701000000000480500000000047990000000004765000000000480000026000000000000003300000000000015858600000000000000009999123100000010000000000000BREMAEACNPR1128
012026022702EMBJ3       010EMBRAER     ON      NM   R$  000000000934500000000093450000000009184000000000924500000000092420000000009242000000000924812840000000000004498500000000041590353600000000000000009999123100000010000000000000BREMBJACNOR1102
012026022702ADMF3       010CIABRASF    ON      NM   R$  000000000095000000000012500000000000808000000000100400000000012500000000001200000000000125000010000000000000001900000000000001909000000000000000009999123100000010000000000000BRADMFACNOR3101
012026022702AERI3       010AERIS       ON      NM   R$  000000000028100000000002810000000000277000000000027900000000002790000000000277000000000027900109000000000000031000000000000008660700000000000000009999123100000010000000000000BRAERIACNOR4102
012026022702AFLT3       010AFLUENTE T  ON           R$  000000000075700000000007570000000000731000000000074800000000007310000000000731000000000076300002000000000000000300000000000000224500000000000000009999123100000010000000000000BRAFLTACNOR1126
012026022702AGRO3       010BRASILAGRO  ON      NM   R$  000000000221600000000022160000000002124000000000215300000000021380000000002128000000000213901852000000000000264300000000000569097700000000000000009999123100000010000000000000BRAGROACNOR7116
012026022702KLBN3       010KLABIN S/A  ON      N2   R$  000000000041500000000004180000000000410000000000041200000000004120000000000412000000000041300916000000000000401300000000000165688800000000000000009999123100000010000000000000BRKLBNACNOR2179
012026022702KLBN4       010KLABIN S/A  PN      N2   R$  000000000041200000000004150000000000409000000000041100000000004100000000000410000000000041102200000000000001778200000000000731310400000000000000009999123100000010000000000000BRKLBNACNPR9179
012026022702MILS3       010MILLS       ON      NM   R$  000000000151800000000015270000000001503000000000151000000000015100000000001505000000000151103215000000000000665300000000001004868800000000000000009999123100000010000000000000BRMILSACNOR2132
012026022702MLAS3       010MULTILASER  ON      NM   R$  000000000013600000000001360000000000132000000000013300000000001350000000000134000000000013500544000000000000695700000000000093038900000000000000009999123100000010000000000000BRMLASACNOR9102
012026022702MNDL3       010MUNDIAL     ON           R$  000000000178700000000018690000000001787000000000180200000000018690000000001710000000000187000015000000000000003100000000000005588600000000000000009999123100000010000000000000BRMNDLACNOR4109
012026022702MNPR3       010MINUPAR     ON           R$  000000000043600000000004490000000000417000000000043400000000004340000000000417000000000043500038000000000000009400000000000004085400000000000000009999123100000010000000000000BRMNPRACNOR5123
012026022702MOTV3       010MOTIVA SA   ON      NM   R$  000000000166800000000016760000000001647000000000166100000000016650000000001657000000000166613042000000000012213000000000020288501200000000000000009999123100000010000000000000BRMOTVACNOR7102
012026022702MOVI3       010MOVIDA      ON      NM   R$  000000000144300000000014910000000001418000000000147100000000014810000000001472000000000148111877000000000006594700000000009706424400000000000000009999123100000010000000000000BRMOVIACNOR0126
012026022702SEER3       010SER EDUCA   ON      NM   R$  000000000125100000000012610000000001210000000000123000000000012360000000001230000000000123603765000000000000754700000000000928918100000000000000009999123100000010000000000000BRSEERACNOR5120
012026022702SEQL3       010SEQUOIA LOG ON      NM   R$  000000000003600000000000370000000000032000000000003400000000000320000000000032000000000003301199000000000001243200000000000042333000000000000000009999123100000010000000000000BRSEQLACNOR2108
012026022702SHOW3       010TIME FOR FUNON      NM   R$  000000000045500000000004620000000000442000000000045000000000004550000000000453000000000045500224000000000000041500000000000018715000000000000000009999123100000010000000000000BRSHOWACNOR7106
012026022702SHUL4       010SCHULZ      PN           R$  000000000057100000000005730000000000562000000000056500000000005620000000000562000000000056400645000000000000324600000000000183624300000000000000009999123100000010000000000000BRSHULACNPR4163
012026022702SIMH3       010SIMPAR      ON  EG  NM   R$  000000000127500000000012950000000001254000000000127300000000012650000000001265000000000127110224000000000003900100000000004965136500000000000000009999123100000010000000000000BRSIMHACNOR0110
012026022702SLCE3       010SLC AGRICOLAON      NM   R$  000000000165600000000016640000000001640000000000165300000000016480000000001646000000000164805457000000000002311300000000003822060100000000000000009999123100000010000000000000BRSLCEACNOR2128
012026022702PNVL3       010DIMED       ON      NM   R$  000000000163400000000016340000000001582000000000161500000000016200000000001620000000000162105893000000000001219900000000001970475200000000000000009999123100000010000000000000BRPNVLACNOR9213
012026022702POMO3       010MARCOPOLO   ON      N2   R$  000000000065400000000006600000000000649000000000065500000000006520000000000652000000000065401226000000000000723800000000000474125000000000000000009999123100000010000000000000BRPOMOACNOR0105
012026022702POMO4       010MARCOPOLO   PN      N2   R$  000000000070000000000007040000000000688000000000069300000000006880000000000688000000000069012797000000000011821500000000008202028700000000000000009999123100000010000000000000BRPOMOACNPR7105
012026022702POSI3       010POSITIVO TECON      NM   R$  000000000041100000000004150000000000403000000000040700000000004060000000000405000000000040702418000000000001752000000000000713524500000000000000009999123100000010000000000000BRPOSIACNOR9118
012026022702RAIZ4       010RAIZEN      PN      N2   R$  000000000006500000000000650000000000063000000000006300000000000630000000000063000000000006413274000000000019904000000000001269422300000000000000009999123100000010000000000000BRRAIZACNPR6112
012026022702IFCM3       010INFRACOMM   ON      NM   R$  000000000007300000000000740000000000068000000000007000000000000730000000000072000000000007300446000000000000773200000000000054617300000000000000009999123100000010000000000000BRIFCMACNOR8109
012026022702IGTI11      010IGUATEMI S.AUNT ED  N1   R$  000000000294900000000029800000000002907000000000292600000000029220000000002922000000000292412558000000000003235600000000009469014700000000000000009999123100000010000000000000BRIGTICDAM16109
012026022702IGTI3       010IGUATEMI S.AON  ED  N1   R$  000000000034500000000003450000000000337000000000034100000000003400000000000338000000000034000063000000000000028400000000000009709100000000000000009999123100000010000000000000BRIGTIACNOR8109
012026022702INEP3       010INEPAR      ON           R$  000000000012500000000001290000000000125000000000012600000000001280000000000126000000000012800032000000000000016900000000000002141000000000000000009999123100000010000000000000BRINEPACNOR1145
012026022702INEP4       010INEPAR      PN           R$  000000000011300000000001130000000000111000000000011200000000001110000000000111000000000011300017000000000000009500000000000001064700000000000000009999123100000010000000000000BRINEPACNPR8145
012026022702INTB3       010INTELBRAS   ON      NM   R$  000000000138100000000014350000000001352000000000141000000000014020000000001402000000000140408197000000000003197600000000004509186000000000000000009999123100000010000000000000BRINTBACNOR9115
012026022702PDGR3       010PDG REALT   ON      NM   R$  000000000021600000000002220000000000213000000000021700000000002180000000000218000000000021900131000000000000059500000000000012954100000000000000009999123100000010000000000000BRPDGRACNOR8123
012026022702PDTC3       010PADTEC      ON      NM   R$  000000000016000000000001660000000000159000000000016200000000001640000000000159000000000016400038000000000000014800000000000002406200000000000000009999123100000010000000000000BRPDTCACNOR3101
012026022702PETR3       010PETROBRAS   ON      N2   R$  000000000429500000000043580000000004253000000000428800000000042730000000004270000000000427315709000000000013279300000000056947282700000000000000009999123100000010000000000000BRPETRACNOR9212
012026022702PETR4       010PETROBRAS   PN  ATZ N2   R$  000000000399200000000040270000000003933000000000397000000000039330000000003933000000000393634404000000000038799000000000154062049400000000000000009999123100000010000000000000BRPETRACNPR6224
012026022702PFRM3       010PROFARMA    ON      NM   R$  000000000092800000000009280000000000891000000000089800000000008950000000000894000000000090100807000000000000182000000000000163528600000000000000009999123100000010000000000000BRPFRMACNOR1122
012026022702PGMN3       010PAGUE MENOS ON      NM   R$  000000000067700000000007200000000000658000000000069900000000006970000000000694000000000069909673000000000005189600000000003627752900000000000000009999123100000010000000000000BRPGMNACNOR8106
012026022702PINE3       010PINE        ON      N2   R$  000000000132000000000013530000000001291000000000132100000000013460000000001297000000000134700027000000000000006400000000000008460500000000000000009999123100000010000000000000BRPINEACNOR1160
012026022702PINE4       010PINE        PN      N2   R$  000000000140600000000014060000000001325000000000135600000000013510000000001351000000000135504135000000000001447000000000001963426500000000000000009999123100000010000000000000BRPINEACNPR8160
012026022702BEEF3       010MINERVA     ON      NM   R$  000000000052400000000005280000000000521000000000052400000000005220000000000521000000000052211736000000000011660700000000006113882700000000000000009999123100000010000000000000BRBEEFACNOR6120
012026022702BRAP3       010BRADESPAR   ON      N1   R$  000000000213800000000021480000000002122000000000213500000000021390000000002129000000000213900407000000000000076700000000000163802000000000000000009999123100000010000000000000BRBRAPACNOR5153
012026022702BRAP4       010BRADESPAR   PN      N1   R$  000000000247900000000025100000000002466000000000248300000000024830000000002477000000000248306140000000000002464300000000006120331300000000000000009999123100000010000000000000BRBRAPACNPR2153
012026022702RNEW3       010RENOVA      ON      N2   R$  000000000012700000000001350000000000127000000000013100000000001340000000000133000000000013500221000000000000122000000000000016041700000000000000009999123100000010000000000000BRRNEWACNOR8113
012026022702RNEW4       010RENOVA      PN      N2   R$  000000000012400000000001390000000000120000000000013100000000001380000000000135000000000013800394000000000000482300000000000063594500000000000000009999123100000010000000000000BRRNEWACNPR5113
012026022702ROMI3       010ROMI        ON      NM   R$  000000000082200000000008220000000000814000000000081700000000008180000000000816000000000082000720000000000000230400000000000188280400000000000000009999123100000010000000000000BRROMIACNOR8201
012026022702HBOR3       010HELBOR      ON      NM   R$  000000000031500000000003150000000000302000000000030700000000003040000000000304000000000030500704000000000000898500000000000275910000000000000000009999123100000010000000000000BRHBORACNOR3120
012026022702HBRE3       010HBR REALTY  ON      NM   R$  000000000033700000000003380000000000325000000000032900000000003310000000000329000000000033103468000000000002716000000000000893684700000000000000009999123100000010000000000000BRHBREACNOR4101
012026022702HBSA3       010HIDROVIAS   ON      NM   R$  000000000040900000000004200000000000407000000000041800000000004200000000000418000000000042001773000000000003341000000000001397306200000000000000009999123100000010000000000000BRHBSAACNOR0102
012026022702DMVF3       010D1000VFARMA ON      NM   R$  000000000074900000000007500000000000719000000000073500000000007500000000000722000000000075000351000000000000102300000000000075195800000000000000009999123100000010000000000000BRDMVFACNOR9100
012026022702DOHL4       010DOHLER      PN           R$  000000000037800000000003930000000000376000000000037800000000003930000000000364000000000039400009000000000000003700000000000001400300000000000000009999123100000010000000000000BRDOHLACNPR9067
012026022702DOTZ3       010DOTZ SA     ON      NM   R$  000000000030800000000003080000000000300000000000030400000000003040000000000301000000000030500035000000000000006400000000000001947500000000000000009999123100000010000000000000BRDOTZACNOR7101
012026022702BRAV3       010BRAVA       ON  ATZ NM   R$  000000000187500000000018790000000001850000000000186600000000018640000000001864000000000186518980000000000006248800000000011666375200000000000000009999123100000010000000000000BRBRAVACNOR3104
012026022702CPLE3       010COPEL       ON      NM   R$  000000000150200000000015040000000001462000000000146600000000014660000000001465000000000146632742000000000123326700000000180882718400000000000000009999123100000010000000000000BRCPLEACNOR8153
012026022702CRPG5       010CRISTAL     PNA          R$  000000000186000000000018800000000001840000000000185200000000018400000000001829000000000184000019000000000000003900000000000007226400000000000000009999123100000010000000000000BRCRPGACNPA3119
012026022702CSAN3       010COSAN       ON  ATZ NM   R$  000000000066400000000006660000000000627000000000064000000000006290000000000629000000000063023995000000000028649900000000018355257500000000000000009999123100000010000000000000BRCSANACNOR6129
012026022702RCSL3       010RECRUSUL    ON           R$  000000000028000000000002880000000000267000000000027300000000002670000000000267000000000026900200000000000000094100000000000025756100000000000000009999123100000010000000000000BRRCSLACNOR4134
012026022702RCSL4       010RECRUSUL    PN           R$  000000000058000000000005920000000000540000000000056700000000005850000000000584000000000058505984000000000003880300000000002201863500000000000000009999123100000010000000000000BRRCSLACNPR1134
012026022702RDOR3       010REDE D OR   ON      NM   R$  000000000414200000000041460000000004025000000000406100000000040300000000004030000000000404047289000000000014841100000000060269741400000000000000009999123100000010000000000000BRRDORACNOR8119
012026022702SCAR3       010SAO CARLOS  ON      NM   R$  000000000149700000000015290000000001479000000000149500000000015290000000001485000000000152900118000000000000027800000000000041588000000000000000009999123100000010000000000000BRSCARACNOR7133
012026022702BMEB3       010MERCANTIL   ON      N1   R$  000000000730000000000073250000000007218000000000729400000000072500000000007200000000000730000040000000000000004300000000000031365800000000000000009999123100000010000000000000BRBMEBACNOR8210
012026022702BMEB4       010MERCANTIL   PN      N1   R$  000000000817000000000083860000000007899000000000814000000000083100000000008274000000000831000161000000000000024600000000000200249300000000000000009999123100000010000000000000BRBMEBACNPR5215
012026022702BMGB4       010BANCO BMG   PN      N1   R$  000000000048000000000005160000000000478000000000049900000000004990000000000499000000000050502723000000000003210500000000001604628700000000000000009999123100000010000000000000BRBMGBACNPR0118
012026022702BMIN4       010MERC INVEST PN           R$  000000000190000000000019000000000001800000000000182100000000018000000000001785000000000180000009000000000000001000000000000001821300000000000000009999123100000010000000000000BRBMINACNPR1177
012026022702BMKS3       010BIC MONARK  ON           R$  000000003720000000000386790000000037101000000003776800000000384000000000037200000000003839900012000000000000000028000000000001057510000000000000009999123100000010000000000000BRBMKSACNOR9169
012026022702BMOB3       010BEMOBI TECH ON      NM   R$  000000000239300000000024610000000002393000000000241700000000024200000000002393000000000242002662000000000000479300000000001158848800000000000000009999123100000010000000000000BRBMOBACNOR7107
012026022702FRAS3       010FRAS-LE     ON      N1   R$  000000000246600000000024700000000002430000000000244500000000024460000000002433000000000244600628000000000000129100000000000315719100000000000000009999123100000010000000000000BRFRASACNOR0163
012026022702NEOE3       010NEOENERGIA  ON      NM   R$  000000000328400000000032870000000003282000000000328500000000032870000000003286000000000328801078000000000000816400000000002682307400000000000000009999123100000010000000000000BRNEOEACNOR3127
012026022702YDUQ3       010YDUQS PART  ON      NM   R$  000000000133600000000013530000000001321000000000133300000000013270000000001327000000000133006678000000000002312500000000003084365800000000000000009999123100000010000000000000BRYDUQACNOR3108
012026022702TPIS3       010TRIUNFO PARTON      NM   R$  000000000066000000000006680000000000657000000000066100000000006630000000000662000000000066300069000000000000035700000000000023623000000000000000009999123100000010000000000000BRTPISACNOR8120
012026022702TRAD3       010TC          ON      NM   R$  000000000024500000000002670000000000245000000000025400000000002460000000000245000000000024600118000000000000060100000000000015293900000000000000009999123100000010000000000000BRTRADACNOR3102
012026022702TRIS3       010TRISUL      ON      NM   R$  000000000074100000000007530000000000736000000000074400000000007440000000000743000000000074800868000000000000297400000000000221475300000000000000009999123100000010000000000000BRTRISACNOR4122
012026022702TTEN3       0103TENTOS     ON      NM   R$  000000000172900000000017370000000001708000000000171600000000017110000000001711000000000171504392000000000000859700000000001475774300000000000000009999123100000010000000000000BRTTENACNOR0105
012026022702TUPY3       010TUPY        ON      NM   R$  000000000137700000000013780000000001341000000000135700000000013530000000001352000000000135303608000000000000918700000000001246925500000000000000009999123100000010000000000000BRTUPYACNOR1185
012026022702UCAS3       010UNICASA     ON      NM   R$  000000000014300000000001460000000000142000000000014400000000001460000000000145000000000014600059000000000000018300000000000002641700000000000000009999123100000010000000000000BRUCASACNOR1114
012026022702UGPA3       010ULTRAPAR    ON      NM   R$  000000000265000000000026640000000002577000000000260600000000025800000000002579000000000258114796000000000008400800000000021899961100000000000000009999123100000010000000000000BRUGPAACNOR8159
012026022702WEST3       010WESTWING    ON      NM   R$  000000000059400000000006290000000000594000000000060700000000006130000000000598000000000061300062000000000000018000000000000010941300000000000000009999123100000010000000000000BRWESTACNOR3101
012026022702WHRL3       010WHIRLPOOL   ON           R$  000000000043300000000004400000000000433000000000043600000000004340000000000434000000000043600019000000000000006000000000000002616000000000000000009999123100000010000000000000BRWHRLACNOR5135
012026022702WHRL4       010WHIRLPOOL   PN           R$  000000000048000000000004800000000000470000000000047400000000004720000000000472000000000047700031000000000000005300000000000002516300000000000000009999123100000010000000000000BRWHRLACNPR2135
012026022702WIZC3       010WIZ CO      ON      NM   R$  000000000093000000000009440000000000922000000000092900000000009300000000000928000000000093002641000000000000552200000000000513357600000000000000009999123100000010000000000000BRWIZCACNOR5104
012026022702WLMM4       010WLM IND COM PN           R$  000000000243700000000024400000000002420000000000243500000000024330000000002432000000000247900010000000000000001300000000000003165500000000000000009999123100000010000000000000BRWLMMACNPR3125
012026022702TECN3       010TECHNOS     ON      NM   R$  000000000084700000000008610000000000828000000000083900000000008410000000000832000000000084300212000000000000036600000000000030708000000000000000009999123100000010000000000000BRTECNACNOR6111
012026022702TELB3       010TELEBRAS    ON           R$  000000000138000000000013800000000001354000000000136400000000013540000000001354000000000139500008000000000000000800000000000001091300000000000000009999123100000010000000000000BRTELBACNOR2142
012026022702TELB4       010TELEBRAS    PN           R$  000000000083200000000008490000000000832000000000083500000000008490000000000835000000000085000006000000000000000800000000000000668200000000000000009999123100000010000000000000BRTELBACNPR9142
012026022702TEND3       010TENDA       ON      NM   R$  000000000306700000000030670000000002960000000000301900000000030260000000003019000000000302606629000000000001433700000000004329078300000000000000009999123100000010000000000000BRTENDACNOR4114
012026022702TFCO4       010TRACK FIELD PN      N2   R$  000000000178900000000017890000000001729000000000174800000000017470000000001741000000000174702344000000000000550100000000000961870700000000000000009999123100000010000000000000BRTFCOACNPR8121
012026022702TGMA3       010TEGMA       ON      NM   R$  000000000393500000000039810000000003924000000000395500000000039450000000003940000000000394502671000000000000537100000000002124457400000000000000009999123100000010000000000000BRTGMAACNOR7150
012026022702TIMS3       010TIM         ON      NM   R$  000000000279700000000028260000000002786000000000279900000000027900000000002790000000000280214569000000000012126300000000033949879600000000000000009999123100000010000000000000BRTIMSACNOR5129
012026022702TKNO3       010TEKNO       ON           R$  000000002149900000000214990000000021499000000002149900000000214990000000020800000000002150000001000000000000000100000000000002149900000000000000009999123100000010000000000000BRTKNOACNOR8075
012026022702TKNO4       010TEKNO       PN           R$  000000002160000000000218000000000021600000000002177300000000218000000000021300000000002179900023000000000000004500000000000097979600000000000000009999123100000010000000000000BRTKNOACNPR5080
012026022702TOKY3       010GRUPO TOKY  ON      NM   R$  000000000005800000000000640000000000055000000000006000000000000640000000000062000000000006400404000000000001756100000000000106029400000000000000009999123100000010000000000000BRTOKYACNOR5101
012026022702TOTS3       010TOTVS       ON      NM   R$  000000000381000000000038380000000003770000000000378600000000037840000000003780000000000378517373000000000007522200000000028486544600000000000000009999123100000010000000000000BRTOTSACNOR8150
012026022702WDCN3       010WDC NETWORKSON      NM   R$  000000000026300000000002630000000000254000000000025600000000002610000000000253000000000026100024000000000000011100000000000002842400000000000000009999123100000010000000000000BRWDCNACNOR2100
012026022702WEGE3       010WEG         ON      NM   R$  000000000493200000000049800000000004871000000000495000000000049700000000004967000000000497019244000000000007316400000000036216946800000000000000009999123100000010000000000000BRWEGEACNOR0234
012026022702VLID3       010VALID       ON      NM   R$  000000000222000000000022200000000002165000000000218900000000021820000000002168000000000218202053000000000000267000000000000584561000000000000000009999123100000010000000000000BRVLIDACNOR5148
012026022702VSTE3       010VESTE       ON      NM   R$  000000000037900000000003930000000000379000000000038400000000003930000000000382000000000039300021000000000000004300000000000001653200000000000000009999123100000010000000000000BRVSTEACNOR5104
012026022702VTRU3       010VITRUEDUCA  ON      NM   R$  000000000149100000000015040000000001461000000000148100000000014800000000001479000000000148002361000000000000492100000000000729281600000000000000009999123100000010000000000000BRVTRUACNOR3101
012026022702VULC3       010VULCABRAS   ON      NM   R$  000000000195300000000019700000000001903000000000192300000000019030000000001903000000000190806690000000000001582000000000003042236100000000000000009999123100000010000000000000BRVULCACNOR2181
012026022702VVEO3       010VIVEO       ON      NM   R$  000000000016200000000001620000000000146000000000015200000000001580000000000158000000000015901908000000000002667000000000000406034200000000000000009999123100000010000000000000BRVVEOACNOR0104
012026022702EGIE3       010ENGIE BRASILON      NM   R$  000000000336600000000033700000000003324000000000335800000000033680000000003350000000000337006720000000000002209800000000007422410000000000000000009999123100000010000000000000BREGIEACNOR9132
012026022702AALR3       010ALLIAR      ON      NM   R$  000000000053200000000005410000000000502000000000052700000000005400000000000530000000000054000145000000000000059800000000000031545800000000000000009999123100000010000000000000BRAALRACNOR6104
012026022702ABCB4       010ABC BRASIL  PN      N2   R$  000000000279900000000027990000000002713000000000273300000000027130000000002713000000000272003220000000000000600200000000001640416800000000000000009999123100000010000000000000BRABCBACNPR4150
012026022702ABEV3       010AMBEV S/A   ON           R$  000000000163200000000016520000000001625000000000163200000000016270000000001626000000000162824383000000000034463800000000056245416600000000000000009999123100000010000000000000BRABEVACNOR1134
012026022702BBDC3       010BRADESCO    ON      N1   R$  000000000182500000000018980000000001816000000000185100000000018370000000001836000000000183813359000000000012949900000000023978364400000000000000009999123100000010000000000000BRBBDCACNOR1797
012026022702BBDC4       010BRADESCO    PN      N1   R$  000000000215000000000021900000000002112000000000214700000000021150000000002115000000000211654091000000000069034600000000148250582000000000000000009999123100000010000000000000BRBBDCACNPR8797
012026022702BEES3       010BANESTES    ON           R$  000000000088100000000009200000000000870000000000089300000000008700000000000870000000000088000173000000000000043800000000000039154800000000000000009999123100000010000000000000BRBEESACNOR9415
012026022702BEES4       010BANESTES    PN           R$  000000000088500000000009000000000000870000000000087900000000008840000000000884000000000090000049000000000000010100000000000008884400000000000000009999123100000010000000000000BRBEESACNPR6340
012026022702BLAU3       010BLAU        ON      NM   R$  000000000109700000000010970000000001067000000000108300000000010900000000001087000000000109001373000000000000203300000000000220363800000000000000009999123100000010000000000000BRBLAUACNOR8120
012026022702MGLU3       010MAGAZ LUIZA ON      NM   R$  000000000094800000000009650000000000935000000000094700000000009350000000000935000000000093715563000000000011244700000000010655867400000000000000009999123100000010000000000000BRMGLUACNOR2130
012026022702ONCO3       010ONCOCLINICASON      NM   R$  000000000026700000000002790000000000265000000000027200000000002650000000000265000000000026702111000000000002782800000000000758146600000000000000009999123100000010000000000000BRONCOACNOR6102
012026022702OPCT3       010OCEANPACT   ON      NM   R$  000000000095600000000009640000000000942000000000095600000000009560000000000956000000000096001253000000000000348600000000000333419200000000000000009999123100000010000000000000BROPCTACNOR0100
012026022702ORVR3       010ORIZON      ON      NM   R$  000000000752900000000075650000000007433000000000748500000000074330000000007433000000000747504158000000000000840600000000006292427300000000000000009999123100000010000000000000BRORVRACNOR0101
012026022702PATI3       010PANATLANTICAON           R$  000000000320000000000032000000000003200000000000320000000000032000000000003250000000000357300002000000000000000500000000000001600000000000000000009999123100000010000000000000BRPATIACNOR6069
012026022702PCAR3       010P.ACUCAR-CBDON      NM   R$  000000000031500000000003330000000000308000000000031500000000003080000000000308000000000031006320000000000032891400000000010392641300000000000000009999123100000010000000000000BRPCARACNOR3170
012026022702RADL3       010RAIADROGASILON      NM   R$  000000000254000000000025940000000002494000000000252500000000025080000000002507000000000251124725000000000008890400000000022451224000000000000000009999123100000010000000000000BRRADLACNOR0165
012026022702SAPR11      010SANEPAR     UNT     N2   R$  000000000461700000000046210000000004446000000000450800000000045100000000004507000000000451108366000000000001580700000000007125809500000000000000009999123100000010000000000000BRSAPRCDAM13121
012026022702SAPR3       010SANEPAR     ON      N2   R$  000000000111000000000011100000000001055000000000107200000000010730000000001070000000000107400920000000000000260200000000000279027700000000000000009999123100000010000000000000BRSAPRACNOR9162
012026022702SAPR4       010SANEPAR     PN      N2   R$  000000000087800000000008780000000000846000000000085700000000008590000000000859000000000086103102000000000001499500000000001285597400000000000000009999123100000010000000000000BRSAPRACNPR6162
012026022702SOJA3       010BOA SAFRA   ON      NM   R$  000000000081900000000008240000000000803000000000081000000000008030000000000803000000000080502498000000000001292900000000001048423500000000000000009999123100000010000000000000BRSOJAACNOR9109
012026022702SUZB3       010SUZANO S.A. ON      NM   R$  000000000587800000000059120000000005791000000000581800000000058000000000005799000000000580014907000000000005319700000000030953111800000000000000009999123100000010000000000000BRSUZBACNOR0135
012026022702VAMO3       010VAMOS       ON      NM   R$  000000000045000000000004560000000000440000000000044600000000004400000000000440000000000044310127000000000015431000000000006892070500000000000000009999123100000010000000000000BRVAMOACNOR7109
012026022702SMFT3       010SMART FIT   ON      NM   R$  000000000208000000000020810000000002019000000000203400000000020200000000002019000000000202019612000000000007392700000000015037347200000000000000009999123100000010000000000000BRSMFTACNOR1118
012026022702SMTO3       010SAO MARTINHOON      NM   R$  000000000178500000000018000000000001745000000000176800000000017960000000001790000000000179606675000000000002597800000000004593236300000000000000009999123100000010000000000000BRSMTOACNOR3129
012026022702SNSY5       010SANSUY      PNA          R$  000000000024600000000002620000000000246000000000024800000000002620000000000248000000000026600016000000000000002900000000000000721700000000000000009999123100000010000000000000BRSNSYACNPA5111
012026022702UNIP3       010UNIPAR      ON           R$  000000000656300000000066030000000006451000000000651600000000065100000000006510000000000655000039000000000000008700000000000056691100000000000000009999123100000010000000000000BRUNIPACNOR7210
012026022702UNIP5       010UNIPAR      PNA          R$  000000000713300000000071330000000007004000000000709000000000070040000000007003000000000734400002000000000000000300000000000002127000000000000000009999123100000010000000000000BRUNIPACNPA0212
012026022702UNIP6       010UNIPAR      PNB          R$  000000000710000000000071990000000006953000000000708800000000070500000000007049000000000705003071000000000000542100000000003842578500000000000000009999123100000010000000000000BRUNIPACNPB8210
012026022702USIM3       010USIMINAS    ON      N1   R$  000000000069800000000007140000000000686000000000070500000000007060000000000700000000000070700936000000000000599700000000000422789900000000000000009999123100000010000000000000BRUSIMACNOR3167
012026022702USIM5       010USIMINAS    PNA     N1   R$  000000000068800000000007130000000000686000000000070400000000007070000000000704000000000070714356000000000018774700000000013221324600000000000000009999123100000010000000000000BRUSIMACNPA6172
012026022702FESA3       010FERBASA     ON      N1   R$  000000000121800000000012180000000001218000000000121800000000012180000000001202000000000121800003000000000000000300000000000000365400000000000000009999123100000010000000000000BRFESAACNOR8194
012026022702FESA4       010FERBASA     PN      N1   R$  000000000083800000000008500000000000833000000000084300000000008480000000000840000000000084802378000000000000770800000000000650219500000000000000009999123100000010000000000000BRFESAACNPR5090
012026022702FHER3       010FER HERINGERON      NM   R$  000000000040500000000004120000000000383000000000039000000000004000000000000391000000000040000046000000000000059300000000000023154700000000000000009999123100000010000000000000BRFHERACNOR5103
012026022702DXCO3       010DEXCO       ON      NM   R$  000000000056100000000005610000000000540000000000054400000000005420000000000542000000000054305830000000000003005400000000001637411400000000000000009999123100000010000000000000BRDXCOACNOR8108
012026022702EALT3       010ACO ALTONA  ON           R$  000000000145600000000014560000000001455000000000145500000000014560000000001420000000000145600003000000000000001200000000000001747100000000000000009999123100000010000000000000BREALTACNOR4140
012026022702BRBI11      010BR PARTNERS UNT     N2   R$  000000000198000000000019810000000001928000000000194000000000019430000000001930000000000194301342000000000000198500000000000385267500000000000000009999123100000010000000000000BRBRBICDAM10116
012026022702BRKM3       010BRASKEM     ON      N1   R$  000000000089600000000009180000000000895000000000090300000000009010000000000900000000000091400067000000000000011100000000000010023700000000000000009999123100000010000000000000BRBRKMACNOR1119
012026022702GEPA4       010GER PARANAP PN           R$  000000000353300000000035680000000003533000000000355000000000035680000000003540000000000356900002000000000000000200000000000000710100000000000000009999123100000010000000000000BRGEPAACNPR9165
012026022702GFSA3       010GAFISA      ON      NM   R$  000000000024700000000002890000000000231000000000024800000000002370000000000236000000000023703138000000000005495000000000001363476400000000000000009999123100000010000000000000BRGFSAACNOR3127
012026022702GGBR3       010GERDAU      ON      N1   R$  000000000181400000000018140000000001736000000000179400000000017860000000001783000000000180900222000000000000040000000000000071793900000000000000009999123100000010000000000000BRGGBRACNOR1198
012026022702BGIP3       010BANESE      ON           R$  000000000540700000000055000000000005407000000000545300000000055000000000005500000000000556900002000000000000000200000000000001090700000000000000009999123100000010000000000000BRBGIPACNOR1215
012026022702BGIP4       010BANESE      PN           R$  000000000360000000000036000000000003571000000000358300000000035900000000003582000000000365500004000000000000000400000000000001433500000000000000009999123100000010000000000000BRBGIPACNPR8215
012026022702BHIA3       010CASAS BAHIA ON      NM   R$  000000000030000000000003100000000000296000000000030200000000002990000000000298000000000029902658000000000004581100000000001384983200000000000000009999123100000010000000000000BRBHIAACNOR1104
012026022702NGRD3       010NEOGRID     ON      NM   R$  000000000252900000000025620000000002502000000000252300000000025330000000002532000000000256000034000000000000006700000000000016906100000000000000009999123100000010000000000000BRNGRDACNOR3106
012026022702NUTR3       010NUTRIPLANT  ON      MA   R$  000000000024300000000002430000000000236000000000024000000000002380000000000239000000000025600013000000000000002100000000000000505400000000000000009999123100000010000000000000BRNUTRACNOR0104
012026022702COCE5       010COELCE      PNA          R$  000000000314000000000032150000000003135000000000317200000000032150000000003141000000000323000023000000000000004200000000000013324900000000000000009999123100000010000000000000BRCOCEACNPA3150
012026022702COGN3       010COGNA ON    ON      NM   R$  000000000035300000000003560000000000347000000000035100000000003500000000000349000000000035115404000000000021959700000000007708864500000000000000009999123100000010000000000000BRCOGNACNOR2110
012026022702CMIN3       010CSNMINERACAOON      N2   R$  000000000054600000000005520000000000544000000000054700000000005440000000000544000000000054506846000000000006731300000000003685801700000000000000009999123100000010000000000000BRCMINACNOR2116
012026022702CXSE3       010CAIXA SEGURION      NM   R$  000000000186000000000018650000000001775000000000179000000000017790000000001779000000000178025377000000000014232100000000025476068000000000000000009999123100000010000000000000BRCXSEACNOR7114
012026022702ENGI11      010ENERGISA    UNT     N2   R$  000000000547500000000055180000000005380000000000541700000000053850000000005385000000000541408235000000000002879400000000015598221200000000000000009999123100000010000000000000BRENGICDAM16140
012026022702ENGI3       010ENERGISA    ON      N2   R$  000000000127600000000013000000000001265000000000127900000000012670000000001267000000000128200034000000000000004800000000000006143300000000000000009999123100000010000000000000BRENGIACNOR0150
012026022702ENGI4       010ENERGISA    PN      N2   R$  000000000106000000000010600000000001030000000000104400000000010300000000001030000000000104800050000000000000010800000000000011275600000000000000009999123100000010000000000000BRENGIACNPR7146
012026022702ENJU3       010ENJOEI      ON      NM   R$  000000000011700000000001200000000000115000000000011600000000001170000000000115000000000011700167000000000000164800000000000019275200000000000000009999123100000010000000000000BRENJUACNOR9100
012026022702ENMT3       010ENERGISA MT ON           R$  000000000490100000000052000000000004900000000000512500000000052000000000005200000000000540000007000000000000001200000000000006150200000000000000009999123100000010000000000000BRENMTACNOR5125
012026022702EPAR3       010EMBPAR S/A  ON           R$  000000000034600000000003470000000000344000000000034500000000003450000000000343000000000034500028000000000000008800000000000003038500000000000000009999123100000010000000000000BREPARACNOR9107
012026022702EQMA3B      010EQTLMARANHAOON      MB   R$  000000000339800000000033980000000003398000000000339800000000033980000000003201000000000339900001000000000000000100000000000000339800000000000000009999123100000010000000000000BREQMAACNOR8109
012026022702EQPA3       010EQTL PARA   ON           R$  000000000063500000000006530000000000633000000000064000000000006530000000000637000000000065300022000000000000003600000000000002305000000000000000009999123100000010000000000000BREQPAACNOR1112
012026022702EQTL3       010EQUATORIAL  ON      NM   R$  000000000426000000000042720000000004167000000000420200000000042110000000004210000000000421121784000000000007391500000000031064290900000000000000009999123100000010000000000000BREQTLACNOR0135
012026022702ATED3       010ATOM EDUC   ON           R$  000000000020200000000002020000000000202000000000020200000000002020000000000201000000000020600002000000000000001200000000000000242400000000000000009999123100000010000000000000BRATEDACNOR1100
012026022702AUAU3       010PETZCOBASI  ON      NM   R$  000000000030600000000003090000000000301000000000030300000000003040000000000302000000000030403606000000000002023300000000000614705700000000000000009999123100000010000000000000BRAUAUACNOR1100
012026022702AURE3       010AUREN       ON      NM   R$  000000000122400000000012270000000001180000000000119000000000011860000000001185000000000118906815000000000003646900000000004342439700000000000000009999123100000010000000000000BRAUREACNOR9105
012026022702AVLL3       010ALPHAVILLE  ON      NM   R$  000000000008100000000000810000000000077000000000007800000000000790000000000078000000000007900018000000000000016800000000000001317500000000000000009999123100000010000000000000BRAVLLACNOR5103
012026022702BIOM3       010BIOMM       ON      MA   R$  000000000062700000000006310000000000617000000000062700000000006310000000000620000000000063100106000000000000037400000000000023466900000000000000009999123100000010000000000000BRBIOMACNOR2113
012026022702AXIA3       010AXIA ENERGIAON      N1   R$  000000000620000000000062180000000006000000000000612100000000061270000000006124000000000614838168000000000013568300000000083052075600000000000000009999123100000010000000000000BRAXIAACNOR0102
012026022702AXIA6       010AXIA ENERGIAPNB     N1   R$  000000000670000000000067930000000006543000000000667400000000066860000000006679000000000669006860000000000002124000000000014177558500000000000000009999123100000010000000000000BRAXIAACNPB1103
012026022702AXIA7       010AXIA ENERGIAPNC     N1   R$  000000000600600000000060200000000005804000000000591700000000059040000000005904000000000591207358000000000001944600000000011507047900000000000000009999123100000010000000000000BRAXIAACNPC9100
012026022702CEBR3       010CEB         ON           R$  000000000309000000000030960000000003055000000000307900000000030830000000003040000000000310000016000000000000001900000000000005851200000000000000009999123100000010000000000000BRCEBRACNOR5129
012026022702CEBR5       010CEB         PNA          R$  000000000295000000000029690000000002938000000000296000000000029690000000002937000000000297000006000000000000000600000000000001776300000000000000009999123100000010000000000000BRCEBRACNPA8128
012026022702CEBR6       010CEB         PNB          R$  000000000315800000000031970000000003156000000000316300000000031560000000003156000000000319300022000000000000003400000000000010755900000000000000009999123100000010000000000000BRCEBRACNPB6128
012026022702CEDO4       010CEDRO       PN      N1   R$  000000000096500000000009650000000000965000000000096500000000009650000000000926000000000096500001000000000000000500000000000000482500000000000000009999123100000010000000000000BRCEDOACNPR5128
012026022702CEEB3       010COELBA      ON           R$  000000000456000000000047490000000004560000000000463100000000047490000000004586000000000474900004000000000000000700000000000003241800000000000000009999123100000010000000000000BRCEEBACNOR3207
012026022702CGAS5       010COMGAS      PNA          R$  000000001326500000000135300000000013265000000001339700000000135300000000013295000000001353900002000000000000000200000000000002679500000000000000009999123100000010000000000000BRCGASACNPA3165
012026022702CGRA3       010GRAZZIOTIN  ON           R$  000000000280200000000028020000000002780000000000279600000000027800000000002720000000000299900004000000000000000400000000000001118500000000000000009999123100000010000000000000BRCGRAACNOR2088
012026022702CGRA4       010GRAZZIOTIN  PN           R$  000000000275100000000027600000000002742000000000275500000000027510000000002701000000000275100051000000000000012700000000000034990400000000000000009999123100000010000000000000BRCGRAACNPR9088
012026022702CLSC4       010CELESC      PN      N2   R$  000000001522500000000152500000000015033000000001511100000000150500000000015002000000001509000030000000000000003000000000000045334300000000000000009999123100000010000000000000BRCLSCACNPR3138
012026022702CMIG3       010CEMIG       ON      N1   R$  000000000160600000000016060000000001561000000000156800000000015610000000001561000000000157500398000000000000092600000000000145255800000000000000009999123100000010000000000000BRCMIGACNOR6251
012026022702CMIG4       010CEMIG       PN      N1   R$  000000000122700000000012290000000001207000000000121100000000012070000000001207000000000121516187000000000014330500000000017361721800000000000000009999123100000010000000000000BRCMIGACNPR3252
012026022702CSUD3       010CSU DIGITAL ON      NM   R$  000000000191800000000019290000000001900000000000191400000000019000000000001900000000000191300212000000000000030300000000000058014500000000000000009999123100000010000000000000BRCSUDACNOR5117
012026022702CTKA3       010KARSTEN     ON           R$  000000000489900000000050000000000004400000000000473000000000045470000000002500000000000470000016000000000000002100000000000009933100000000000000009999123100000010000000000000BRCTKAACNOR0043
012026022702CTKA4       010KARSTEN     PN           R$  000000000480000000000048000000000004100000000000434100000000041900000000003401000000000419000076000000000000012600000000000054705500000000000000009999123100000010000000000000BRCTKAACNPR7043
012026022702CURY3       010CURY S/A    ON      NM   R$  000000000395000000000039990000000003802000000000387700000000038860000000003886000000000389010944000000000002464700000000009556491800000000000000009999123100000010000000000000BRCURYACNOR3116
012026022702CVCB3       010CVC BRASIL  ON      NM   R$  000000000022800000000002340000000000225000000000022900000000002300000000000229000000000023005801000000000015794100000000003630055700000000000000009999123100000010000000000000BRCVCBACNOR1118
012026022702ENEV3       010ENEVA       ON      NM   R$  000000000213000000000021420000000002110000000000212900000000021400000000002132000000000214116874000000000008479200000000018059923200000000000000009999123100000010000000000000BRENEVACNOR8107
012026022702ALUP11      010ALUPAR      UNT     N2   R$  000000000357500000000036070000000003555000000000357000000000035700000000003569000000000357003984000000000000847600000000003026195600000000000000009999123100000010000000000000BRALUPCDAM15126
012026022702AZEV3       010AZEVEDO     ON           R$  000000000002600000000000290000000000025000000000002700000000000270000000000027000000000002800449000000000003213100000000000087152700000000000000009999123100000010000000000000BRAZEVACNOR0123
012026022702AZEV4       010AZEVEDO     PN           R$  000000000002000000000000230000000000019000000000002100000000000220000000000021000000000002201459000000000020314900000000000434005000000000000000009999123100000010000000000000BRAZEVACNPR7123
012026022702AZTE3       010AZT ENERGIA ON           R$  000000000002900000000000290000000000028000000000002800000000000290000000000029000000000003000286000000000001462300000000000041876800000000000000009999123100000010000000000000BRAZTEACNOR4101
012026022702AZUL53      010AZUL        ON  P   N2   R$  000000002240000000000245990000000021700000000002230000000000235000000000023401000000002350001503000000042221000000000000000941963292000000000000009999123110000000000000000000BRAZULA01OR8102
012026022702AZZA3       010AZZAS 2154  ON      NM   R$  000000000263200000000026500000000002592000000000261800000000026170000000002612000000000261707766000000000001820200000000004767099000000000000000009999123100000010000000000000BRAZZAACNOR9104
012026022702CYRE3       010CYRELA REALTON      NM   R$  000000000313800000000031380000000003049000000000308400000000030710000000003071000000000308018229000000000005211500000000016075340200000000000000009999123100000010000000000000BRCYREACNOR7143
012026022702CYRE4       010CYRELA REALTPN      NM   R$  000000000300000000000030000000000002885000000000291600000000029150000000002907000000000292301426000000000000286700000000000836177300000000000000009999123100000010000000000000BRCYREACNPR4114
012026022702BBSE3       010BBSEGURIDADEON      NM   R$  000000000351900000000035210000000003465000000000347900000000034680000000003467000000000347816431000000000007979500000000027765545400000000000000009999123100000010000000000000BRBBSEACNOR5128
012026022702BPAC11      010BTGP BANCO  UNT     N2   R$  000000000618900000000062250000000006080000000000614900000000061260000000006124000000000612622342000000000010422700000000064092368400000000000000009999123100000010000000000000BRBPACUNT006128
012026022702BPAC3       010BTGP BANCO  ON      N2   R$  000000000444500000000044980000000004410000000000444900000000044410000000004440000000000450000024000000000000002500000000000011124500000000000000009999123100000010000000000000BRBPACACNOR7139
012026022702BPAC5       010BTGP BANCO  PNA     N2   R$  000000000115400000000011780000000001151000000000115900000000011570000000001155000000000117100025000000000000009600000000000011127500000000000000009999123100000010000000000000BRBPACACNPA0139
012026022702BALM4       010BAUMER      PN           R$  000000000196700000000020810000000001967000000000199200000000020810000000001979000000000208300004000000000000000500000000000000996300000000000000009999123100000010000000000000BRBALMACNPR2060
012026022702BAZA3       010AMAZONIA    ON           R$  000000000875500000000088470000000008690000000000875700000000088470000000008771000000000884800037000000000000004800000000000042037000000000000000009999123100000010000000000000BRBAZAACNOR0180
012026022702BBAS3       010BRASIL      ON  ERJ NM   R$  000000000270900000000027250000000002687000000000270300000000026950000000002695000000000269927419000000000020417600000000055194407400000000000000009999123100000010000000000000BRBBASACNOR3335
012026022702BRST3       010BRISANET    ON      NM   R$  000000000031800000000003190000000000313000000000031500000000003150000000000315000000000031700604000000000000206000000000000065044600000000000000009999123100000010000000000000BRBRSTACNOR9102
012026022702ITUB3       010ITAUUNIBANCOON      N1   R$  000000000445000000000044500000000004340000000000436800000000043580000000004358000000000437404941000000000003236700000000014139438600000000000000009999123100000010000000000000BRITUBACNOR4365
012026022702ITUB4       010ITAUUNIBANCOPN      N1   R$  000000000476000000000047620000000004628000000000467600000000046780000000004677000000000467946692000000000044765800000000209327997500000000000000009999123100000010000000000000BRITUBACNPR1365
012026022702LUPA3       010LUPATECH    ON      NM   R$  000000000012100000000001250000000000119000000000012100000000001230000000000120000000000012300073000000000000099600000000000012081800000000000000009999123100000010000000000000BRLUPAACNOR8112
012026022702LUXM4       010TREVISA     PN           R$  000000000041400000000004420000000000413000000000042900000000004300000000000414000000000043700006000000000000000600000000000000257700000000000000009999123100000010000000000000BRLUXMACNPR4053
012026022702LWSA3       010LWSA        ON      NM   R$  000000000036400000000003730000000000352000000000035900000000003590000000000359000000000036011194000000000008372400000000003009159000000000000000009999123100000010000000000000BRLWSAACNOR8106
012026022702DASA3       010DASA        ON      NM   R$  000000000041200000000004130000000000400000000000040600000000004030000000000403000000000040502031000000000000900600000000000366006800000000000000009999123100000010000000000000BRDASAACNOR1123
012026022702CPFE3       010CPFL ENERGIAON      NM   R$  000000000511300000000051130000000005005000000000503700000000050350000000005025000000000503808562000000000003340000000000016824978700000000000000009999123100000010000000000000BRCPFEACNOR0138
012026022702QUAL3       010QUALICORP   ON      NM   R$  000000000024100000000002410000000000183000000000020500000000002150000000000214000000000021515765000000000031925500000000006566477100000000000000009999123100000010000000000000BRQUALACNOR6122
012026022702RPAD6       010ALFA HOLDINGPNB          R$  000000000047000000000004700000000000470000000000047000000000004700000000000446000000000047000001000000000000000100000000000000047000000000000000009999123100000010000000000000BRRPADACNPB2199
012026022702RVEE3       010REVEE       ON      NM   R$  000000000017000000000001700000000000159000000000016200000000001600000000000159000000000016800007000000000000002100000000000000340800000000000000009999123100000010000000000000BRRVEEACNOR9102
012026022702EZTC3       010EZTEC       ON      NM   R$  000000000155700000000015850000000001542000000000157000000000015800000000001564000000000158006631000000000001705000000000002677859000000000000000009999123100000010000000000000BREZTCACNOR0132
012026022702IBOV11      010IBOVESPA    IBO/         R$  000001891190000000189119000000018911900000001891190000000189119000000000000000000000000000000013000000000000010226000000001933930894000000000000009999123100001000000000000000BRIBOVINDM18016
012026022707TXRX4       010TEX RENAUX  PN           R$  000000000015700000000001570000000000157000000000015700000000001570000000000157000000000018000001000000000000000100000000000000015700000000000000009999123100000010000000000000BRTXRXACNPR0142
012026022708LIGT3       010LIGHT S/A   ON      NM   R$  000000000047600000000004930000000000471000000000048200000000004930000000000493000000000049403755000000000001597800000000000770602200000000000000009999123100000010000000000000BRLIGTACNOR2125
012026022708AMBP3       010AMBIPAR     ON      NM   R$  000000000002500000000000260000000000024000000000002400000000000250000000000024000000000002500723000000000019058200000000000469940400000000000000009999123100000010000000000000BRAMBPACNOR6105
012026022708AMER3       010AMERICANAS  ON      NM   R$  000000000056100000000005730000000000559000000000056300000000005620000000000562000000000056401372000000000001383100000000000779276700000000000000009999123100000010000000000000BRAMERACNOR6103
012026022708JFEN3       010JOAO FORTES ON           R$  000000000009500000000000980000000000094000000000009500000000000960000000000095000000000009700012000000000000096500000000000009259900000000000000009999123100000010000000000000BRJFENACNOR0061
012026022708PMAM3       010PARANAPANEMAON  ES  NM   R$  000000000006700000000000680000000000063000000000006500000000000640000000000063000000000006400577000000000001687400000000000110781200000000000000009999123100000010000000000000BRPMAMACNOR3046
012026022708BOBR4       010BOMBRIL     PN           R$  000000000012200000000001220000000000122000000000012200000000001220000000000122000000000012400001000000000000000100000000000000012200000000000000009999123100000010000000000000BRBOBRACNPR3128
012026022708AGXY3       010AGROGALAXY  ON      NM   R$  000000000022900000000002350000000000224000000000022700000000002240000000000224000000000022500106000000000000020000000000000004550100000000000000009999123100000010000000000000BRAGXYACNOR4104
012026022708OIBR3       010OI          ON      N1   R$  000000000001900000000000190000000000019000000000001900000000000190000000000019000000000002000118000000000000925900000000000017592100000000000000009999123100000010000000000000BROIBRACNOR1112
012026022708OIBR4       010OI          PN      N1   R$  000000000012900000000001290000000000129000000000012900000000001290000000000129000000000013100008000000000000001600000000000000206400000000000000009999123100000010000000000000BROIBRACNPR8111
012026022708OSXB3       010OSX BRASIL  ON      NM   R$  000000000018200000000001820000000000182000000000018200000000001820000000000171000000000018200004000000000000001400000000000000254800000000000000009999123100000010000000000000BROSXBACNOR8109
012026022708FICT3       010FICTORALIMENON           R$  000000000005900000000000800000000000059000000000006700000000000800000000000070000000000008000350000000000000240800000000000016310500000000000000009999123100000010000000000000BRFICTACNOR3101
012026022708NEXP3       010NEXPE       ON           R$  000000000028000000000002800000000000278000000000027900000000002780000000000278000000000028400004000000000000002100000000000000586300000000000000009999123100000010000000000000BRNEXPACNOR0101
012026022708HOOT4       010HOTEIS OTHONPN           R$  000000000071100000000007130000000000701000000000070800000000007130000000000701000000000071300012000000000000001500000000000001062600000000000000009999123100000010000000000000BRHOOTACNPR9015
012026022708CTAX3       010CONTAX      ON           R$  000000000008100000000000870000000000081000000000008300000000000870000000000081000000000008700004000000000000017000000000000001423800000000000000009999123100000010000000000000BRCTAXACNOR3119
012026022708CTSA4       010SANTANENSE  PN           R$  000000000018100000000001810000000000181000000000018100000000001810000000000180000000000021700002000000000000000300000000000000054300000000000000009999123100000010000000000000BRCTSAACNPR0063
012026022708RPMG3       010PET MANGUINHON           R$  000000000022200000000002250000000000222000000000022200000000002250000000000222000000000022500006000000000000001200000000000000267300000000000000009999123100000010000000000000BRRPMGACNOR9194
012026022708RSID3       010ROSSI RESID ON      NM   R$  000000000017200000000001720000000000172000000000017200000000001720000000000165000000000017200001000000000000000100000000000000017200000000000000009999123100000010000000000000BRRSIDACNOR8121
012026022710HYPE1       010HYPERA      DIR ORD NM   R$  000000000025100000000002590000000000201000000000021700000000002100000000000208000000000021400309000000000000188300000000000041006900000000000000009999123100000010000000000000BRHYPED02OR3149
012026022710PMAM1       010PARANAPANEMADIR ORD NM   R$  000000000000100000000000010000000000001000000000000100000000000010000000000000000000000000100079000000000001154400000000000001154400000000000000009999123100000010000000000000BRPMAMD10OR9045
012026022710VIVR13      010VIVER       DIR     NM   R$  000000000000100000000000010000000000001000000000000100000000000010000000000000000000000000100034000000000000079300000000000000079300000000000000009999123100000010000000000000BRVIVRD03M15125
012026022710BMEB9       010MERCANTIL   ON  REC N1   R$  000000000705000000000070500000000006900000000000696900000000069000000000006700000000000690000009000000000000001300000000000009060300000000000000009999123100000010000000000000BRBMEBR04OR7209
012026022710ABCB10      010ABC BRASIL  PN  REC N2   R$  000000000271000000000027200000000002680000000000269900000000026910000000002685000000000272000009000000000000000900000000000002429800000000000000009999123100000010000000000000BRABCBR20PR9149
012026022710AZUL12      010AZUL        DIR     N2   R$  000000001389800000000217500000000011500000000001510000000000217500000000014560000000002100000093000000000541000000000000000008200024000000000000009999123110000000000000000000BRAZULD02M17101
012026022710AZUL14      010AZUL        DIR     N2   R$  000000000161600000000020200000000001616000000000160000000000020200000000002020000000000249800022000000000146000000000000000000240380000000000000009999123110000000000000000000BRAZULD03M16101
012026022710AZUL16      010AZUL        DIR     N2   R$  000000001250000000000190000000000011500000000001360000000000170000000000013600000000001900000055000000000211000000000000000002872849000000000000009999123110000000000000000000BRAZULD04M15101
012026022712KORE11      010FII KORE    CI           R$  000000000770500000000078490000000007670000000000778000000000078050000000007755000000000780504710000000000000069422000000000540154142000000000000009999123100000010000000000000BRKORECTF012126
012026022712LASC11      010FII LEGATUS CI           R$  000000001125000000000112500000000011088000000001124800000000112490000000011185000000001125000039000000000000533600000000006002465229000000000000009999123100000010000000000000BRLASCCTF003175
012026022712LIFE11      010FII LIFE    CI           R$  000000000088700000000009000000000000883000000000089200000000009000000000000895000000000090020416000000000000159140000000000141966703000000000000009999123100000010000000000000BRLIFECTF017152
012026022712RECD11      010FII RECD    CI           R$  000000000071600000000007160000000000716000000000071600000000007160000000000711000000000071600008000000000000000163000000000000116708000000000000009999123100000010000000000000BRRECDCTF004118
012026022712RECM11      010FII RECM    CI           R$  000000000085900000000008590000000000854000000000085500000000008540000000000854000000000085600027000000000000006547000000000005597712000000000000009999123100000010000000000000BRRECMCTF005116
012026022712RECR11      010FII REC RECECI           R$  000000000809400000000082550000000008081000000000817100000000082420000000008242000000000825505731000000000000070649000000000577280833000000000000009999123100000010000000000000BRRECRCTF004172
012026022712RECT11      010FII REC RENDCI           R$  000000000394500000000039890000000003945000000000395700000000039890000000003965000000000398900835000000000000022001000000000087066635000000000000009999123100000010000000000000BRRECTCTF000188
012026022712RELG11      010FII REC LOG CI           R$  000000000640700000000064500000000006391000000000641100000000064470000000006391000000000644700046000000000000000510000000000003269875000000000000009999123100000010000000000000BRRELGCTF008156
012026022712PLAG11      010FII PLAG    CI           R$  000000000623000000000062620000000006230000000000624500000000062500000000006250000000000625400074000000000000001652000000000010317542000000000000009999123100000010000000000000BRPLAGCTF000113
012026022712GRUL11      010FII GRUL    CI           R$  000000000089400000000009040000000000887000000000089500000000009030000000000898000000000090300577000000000000071697000000000064218040000000000000009999123100000010000000000000BRGRULCTF004116
012026022712GSFI11      010FII GENERAL CI           R$  000000000110000000000011070000000001089000000000109400000000011000000000001100000000000110600200000000000000010041000000000010992378000000000000009999123100000010000000000000BRGSFICTF009103
012026022712MCCI11      010FII MAUA    CI           R$  000000000940200000000095940000000009402000000000950900000000095900000000009559000000000959009316000000000000056484000000000537126576000000000000009999123100000010000000000000BRMCCICTF008182
012026022712MCEM11      010FII MCEM    CI           R$  000000000643500000000064360000000006435000000000643500000000064360000000006119000000000643600007000000000000000220000000000001415901000000000000009999123100000010000000000000BRMCEMCTF006112
012026022712MCLO11      010FII MCLO    CI           R$  000000000097100000000010050000000000971000000000099900000000010000000000000991000000000100000048000000000000020532000000000020525414000000000000009999123100000010000000000000BRMCLOCTF007113
012026022712MCRE11      010FII MAUA RE CI  ER       R$  000000000095000000000009570000000000945000000000095100000000009550000000000955000000000095625155000000000000455911000000000433929759000000000000009999123100000010000000000000BRMCRECTF013116
012026022712MFII11      010FII MERITO ICI           R$  000000000785000000000078700000000007755000000000779200000000078230000000007780000000000782301983000000000000041545000000000323735283000000000000009999123100000010000000000000BRMFIICTF008257
012026022712RZAK11      010FII RIZA AKNCI  ER       R$  000000000846300000000085230000000008425000000000845600000000084740000000008454000000000847406438000000000000026463000000000223793880000000000000009999123100000010000000000000BRRZAKCTF008164
012026022712RZAT11      010FII ARCTIUM CI  ER       R$  000000000935900000000093590000000009184000000000926500000000092200000000009221000000000923201017000000000000008876000000000082238610000000000000009999123100000010000000000000BRRZATCTF009138
012026022712RZLC11      010FII RZLC    CI           R$  000000010107400000001010740000000101074000000010107400000001010740000000000000000000000000000003000000000000000028000000000002830072000000000000009999123100000010000000000000BRRZLCCTF002117
012026022712RZTR11      010FII RIZA TX CI           R$  000000000970000000000098200000000009700000000000977600000000098200000000009800000000000982005442000000000000038598000000000377337879000000000000009999123100000010000000000000BRRZTRCTF003168
012026022712RZZR11      010FII RZZR    CI           R$  000000001383600000000139880000000013836000000001398400000000139870000000013821000000001398300012000000000000000051000000000000713195000000000000009999123100000010000000000000BRRZZRCTF000118
012026022712FVPQ11      010FII V PARQUECI           R$  000000000673000000000067400000000006654000000000668900000000067000000000006661000000000674000041000000000000000240000000000001605427000000000000009999123100000010000000000000BRFVPQCTF015277
012026022712FYTO11      010FII FYTO    CI           R$  000000000087800000000008780000000000874000000000087600000000008770000000000877000000000087800277000000000000024786000000000021720120000000000000009999123100000010000000000000BRFYTOCTF008111
012026022712DEVA11      010FII DEVANT  CI           R$  000000000249000000000025300000000002490000000000250700000000025250000000002515000000000252500989000000000000025783000000000064653439000000000000009999123100000010000000000000BRDEVACTF000169
012026022712ALZC11      010FII ALIANZACCI  ER       R$  000000000079600000000007960000000000789000000000079100000000007890000000000793000000000079400293000000000000010742000000000008506957000000000000009999123100000010000000000000BRALZCCTF016125
012026022712ALZR11      010FII ALIANZA CI  ER       R$  000000000107800000000010800000000001075000000000107800000000010800000000001077000000000108006087000000000000229842000000000247771637000000000000009999123100000010000000000000BRALZRCTF006204
012026022712ANCR11      010FII ANCAR ICCI           R$  000000004480000000000448000000000044800000000004480000000000448000000000044800000000004900000003000000000000000015000000000000672000000000000000009999123100000010000000000000BRANCRCTF001164
012026022712APTO11      010FII NAVI RSDCI           R$  000000000084500000000008550000000000842000000000084900000000008510000000000843000000000085100130000000000000002846000000000002417393000000000000009999123100000010000000000000BRAPTOCTF007151
012026022712APXM11      010FII APEX MS CI  ER       R$  000000000759900000000076990000000007414000000000750100000000074800000000007380000000000748000052000000000000013644000000000102351734000000000000009999123100000010000000000000BRAPXMCTF003131
012026022712LMAI11      010LABINAFII   CI           R$  000000000370000000000037440000000003700000000000372800000000037400000000003680000000000374000012000000000000000190000000000000708340000000000000009999123100000010000000000000BRLMAICTF003101
012026022712LPLP11      010FII LAGO PDRCI           R$  000000003100000000000310010000000031000000000003100000000000310010000000031001000000003200000002000000000000000005000000000000155002000000000000009999123100000010000000000000BRLPLPCTF008152
012026022712LRDI11      010FII LEBLON  CI           R$  000000001900000000000198000000000019000000000001926600000000198000000000010000000000001980000003000000000000000006000000000000115600000000000000009999123100000010000000000000BRLRDICTF006105
012026022712GSRF11      010FII GSRF    CI           R$  000000001070400000000107040000000010704000000001070400000000107040000000000000000000000000000001000000000000001260000000000013487040000000000000009999123100000010000000000000BRGSRFCTF000100
012026022712GTWR11      010FII G TOWERSCI           R$  000000000852800000000085950000000008528000000000857200000000085940000000008579000000000859400636000000000000005822000000000049908340000000000000009999123100000010000000000000BRGTWRCTF003183
012026022712GZIT11      010FII GAZIT   CI  ER       R$  000000000446700000000044840000000004439000000000446300000000044480000000004448000000000445301367000000000000028645000000000127850569000000000000009999123100000010000000000000BRGZITCTF005128
012026022712HAAA11      010FII HEDGEAAACI           R$  000000000597800000000059780000000005706000000000578600000000059780000000005530000000000597800013000000000000000013000000000000075221000000000000009999123100000010000000000000BRHAAACTF003163
012026022712HABT11      010FII HABIT IICI           R$  000000000774000000000077430000000007695000000000771900000000077300000000007726000000000773001162000000000000032429000000000250336255000000000000009999123100000010000000000000BRHABTCTF001180
012026022712AROA11      010FII AROA    CI           R$  000000000011000000000001120000000000110000000000011100000000001120000000000110000000000011200178000000000000004978000000000000555853000000000000009999123100000010000000000000BRAROACTF003138
012026022712ARRI11      010FII ATRIO   CI           R$  000000000068900000000007070000000000689000000000069800000000007040000000000704000000000070500695000000000000033141000000000023163790000000000000009999123100000010000000000000BRARRICTF009182
012026022712ARXD11      010FII ARXD R  CI           R$  000000000081500000000008150000000000787000000000079600000000008000000000000798000000000080000176000000000000011603000000000009242846000000000000009999123100000010000000000000BRARXDCTF008136
012026022712ITIP11      010FII INTER IPCI           R$  000000000662400000000066970000000006624000000000666400000000066680000000006668000000000667600036000000000000000461000000000003072397000000000000009999123100000010000000000000BRITIPCTF002149
012026022712ITIT11      010FII INTER ITCI           R$  000000000734600000000073950000000007346000000000738300000000073730000000007373000000000738300039000000000000000512000000000003780572000000000000009999123100000010000000000000BRITITCTF004149
012026022712ITRI11      010FII ITRI    CI           R$  000000000862800000000086460000000008550000000000858800000000086110000000008577000000000861102234000000000000017547000000000150696085000000000000009999123100000010000000000000BRITRICTF008122
012026022712IRIM11      010FII IRIM    CI           R$  000000000649900000000065200000000006411000000000647500000000064500000000006450000000000646406393000000000000095919000000000621096020000000000000009999123100000010000000000000BRIRIMCTF003156
012026022712JPPA11      010FII JPPA CRICI           R$  000000000867800000000086950000000008628000000000867700000000086800000000008653000000000868000098000000000000000816000000000007080550000000000000009999123100000010000000000000BRJPPACTF005181
012026022712JSAF11      010FII JS A FINCI           R$  000000000080800000000008160000000000804000000000080900000000008110000000000807000000000081108093000000000000277274000000000224559220000000000000009999123100000010000000000000BRJSAFCTF000154
012026022712JSCR11      010FII JSCR    CI           R$  000000000085400000000008640000000000852000000000085600000000008610000000000850000000000086101426000000000000047826000000000040986695000000000000009999123100000010000000000000BRJSCRCTF001120
