00COTAHIST.2026BOVESPA 20260305                                                                                                                                                                                                                      
012026030502B3SA3       010B3          ON      NM   R$  000000000181500000000018270000000001743000000000176200000000017560000000001754000000000175849546000000000071248600000000125578547200000000000000009999123100000010000000000000BRB3SAACNOR6140
012026030502ARML3       010ARMAC       ON      NM   R$  000000000057600000000005860000000000546000000000056100000000005490000000000549000000000055002011000000000000719400000000000403797500000000000000009999123100000010000000000000BRARMLACNOR1117
012026030502ARND3       010ARANDU      ON      NM   R$  000000000007100000000000710000000000071000000000007100000000000710000000000070000000000008300007000000000000003000000000000000213000000000000000009999123100000010000000000000BRARNDACNOR6100
012026030502ASAI3       010ASSAI       ON      NM   R$  000000000083300000000008480000000000815000000000082300000000008170000000000817000000000081817221000000000011672300000000009613664400000000000000009999123100000010000000000000BRASAIACNOR0109
012026030502ATED3       010ATOM EDUC   ON           R$  000000000020200000000002070000000000200000000000020100000000002000000000000200000000000020500061000000000000072400000000000014586500000000000000009999123100000010000000000000BRATEDACNOR1100
012026030502AUAU3       010PETZCOBASI  ON      NM   R$  000000000031200000000003150000000000305000000000031100000000003110000000000309000000000031104233000000000003308500000000001030676200000000000000009999123100000010000000000000BRAUAUACNOR1100
012026030502HAGA3       010HAGA S/A    ON           R$  000000000021800000000002700000000000218000000000023800000000002380000000000224000000000023800061000000000000020200000000000004810300000000000000009999123100000010000000000000BRHAGAACNOR7103
012026030502HAGA4       010HAGA S/A    PN           R$  000000000014900000000001540000000000141000000000014900000000001410000000000141000000000014700046000000000000028100000000000004189400000000000000009999123100000010000000000000BRHAGAACNPR4103
012026030502HAPV3       010HAPVIDA     ON      NM   R$  000000000100100000000010030000000000960000000000098000000000009600000000000959000000000096415565000000000011196000000000010973852500000000000000009999123100000010000000000000BRHAPVACNOR4119
012026030502TASA3       010TAURUS ARMASON      N2   R$  000000000059900000000006040000000000585000000000059300000000005910000000000585000000000059700176000000000000025800000000000015300300000000000000009999123100000010000000000000BRTASAACNOR7106
012026030502TIMS3       010TIM         ON      NM   R$  000000000272600000000027620000000002671000000000268900000000026770000000002676000000000269211116000000000003972800000000010686078100000000000000009999123100000010000000000000BRTIMSACNOR5129
012026030502TKNO4       010TEKNO       PN           R$  000000002200000000000220000000000022000000000002200000000000220000000000022000000000002220000001000000000000000200000000000004400000000000000000009999123100000010000000000000BRTKNOACNPR5080
012026030502GOLL54      010GOL         PN *P        R$  000000000115200000000011520000000001139000000000114000000000011420000000001142000000000114400085000000000009933000000000000011326576000000000000009999123100010000000000000000BRGOLLA01PR5100
012026030502GRND3       010GRENDENE    ON      NM   R$  000000000050100000000005010000000000491000000000049400000000004910000000000490000000000049205350000000000007932900000000003919500100000000000000009999123100000010000000000000BRGRNDACNOR3182
012026030502INEP3       010INEPAR      ON           R$  000000000012500000000001310000000000125000000000012700000000001300000000000127000000000013000059000000000000043500000000000005548200000000000000009999123100000010000000000000BRINEPACNOR1145
012026030502INEP4       010INEPAR      PN           R$  000000000010900000000001140000000000109000000000011100000000001110000000000110000000000011100029000000000000013100000000000001456300000000000000009999123100000010000000000000BRINEPACNPR8145
012026030502INTB3       010INTELBRAS   ON      NM   R$  000000000138900000000014140000000001373000000000139600000000013900000000001388000000000139008127000000000004936900000000006892658100000000000000009999123100000010000000000000BRINTBACNOR9115
012026030502CAMB3       010CAMBUCI     ON           R$  000000000094100000000009800000000000936000000000095300000000009530000000000936000000000095800077000000000000026600000000000025367100000000000000009999123100000010000000000000BRCAMBACNOR4136
012026030502CAML3       010CAMIL       ON  ED  NM   R$  000000000066700000000006720000000000653000000000065800000000006540000000000654000000000065702223000000000001039300000000000684347300000000000000009999123100000010000000000000BRCAMLACNOR3135
012026030502CASH3       010MELIUZ      ON      NM   R$  000000000035900000000003640000000000341000000000034800000000003480000000000345000000000034902801000000000001550800000000000540300800000000000000009999123100000010000000000000BRCASHACNOR8107
012026030502BGIP3       010BANESE      ON           R$  000000000602600000000060260000000006026000000000602600000000060260000000006041000000000622200003000000000000000300000000000001807800000000000000009999123100000010000000000000BRBGIPACNOR1215
012026030502BGIP4       010BANESE      PN           R$  000000000385400000000039900000000003851000000000391700000000039100000000003911000000000398800041000000000000005500000000000021545600000000000000009999123100000010000000000000BRBGIPACNPR8215
012026030502BHIA3       010CASAS BAHIA ON      NM   R$  000000000028800000000002900000000000275000000000027900000000002780000000000277000000000027803327000000000006950700000000001942102800000000000000009999123100000010000000000000BRBHIAACNOR1104
012026030502BPAC11      010BTGP BANCO  UNT     N2   R$  000000000595000000000059960000000005700000000000579900000000057150000000005715000000000571940433000000000012883000000000074714168700000000000000009999123100000010000000000000BRBPACUNT006128
012026030502BPAC3       010BTGP BANCO  ON      N2   R$  000000000442600000000044480000000004180000000000425700000000041810000000004181000000000423000043000000000000004400000000000018734000000000000000009999123100000010000000000000BRBPACACNOR7139
012026030502BPAC5       010BTGP BANCO  PNA     N2   R$  000000000110700000000011200000000001076000000000109600000000010800000000001080000000000109400068000000000000011200000000000012275900000000000000009999123100000010000000000000BRBPACACNPA0139
012026030502DASA3       010DASA        ON      NM   R$  000000000039800000000004000000000000377000000000038600000000003870000000000383000000000038701751000000000000942000000000000363750300000000000000009999123100000010000000000000BRDASAACNOR1123
012026030502DESK3       010DESKTOP     ON      NM   R$  000000000144000000000014450000000001365000000000139200000000014000000000001400000000000140205002000000000001128600000000001571112300000000000000009999123100000010000000000000BRDESKACNOR2106
012026030502RCSL3       010RECRUSUL    ON  EB       R$  000000000007900000000000830000000000072000000000007600000000000720000000000072000000000007400456000000000000661200000000000050476100000000000000009999123100000010000000000000BRRCSLACNOR4135
012026030502RCSL4       010RECRUSUL    PN  EB       R$  000000000014100000000001560000000000112000000000012900000000001150000000000115000000000011606410000000000011490900000000001493443700000000000000009999123100000010000000000000BRRCSLACNPR1135
012026030502RDOR3       010REDE D OR   ON      NM   R$  000000000390000000000040000000000003770000000000389300000000038130000000003811000000000381541975000000000012192200000000047472737300000000000000009999123100000010000000000000BRRDORACNOR8119
012026030502EKTR4       010ELEKTRO     PN           R$  000000000396900000000039700000000003811000000000390600000000039700000000003623000000000396900005000000000000000500000000000001953100000000000000009999123100000010000000000000BREKTRACNPR7174
012026030502EMAE4       010EMAE        PN           R$  000000000479000000000048000000000004661000000000473600000000047390000000004634000000000474500032000000000000005700000000000026996900000000000000009999123100000010000000000000BREMAEACNPR1128
012026030502EMBJ3       010EMBRAER     ON      NM   R$  000000000922000000000092300000000008682000000000882600000000087160000000008716000000000872021257000000000005912300000000052184479900000000000000009999123100000010000000000000BREMBJACNOR1102
012026030502ITUB3       010ITAUUNIBANCOON  EJ  N1   R$  000000000423500000000042350000000004100000000000413400000000041010000000004100000000000411104776000000000001110900000000004592686000000000000000009999123100000010000000000000BRITUBACNOR4366
012026030502ITUB4       010ITAUUNIBANCOPN  EJ  N1   R$  000000000448000000000045000000000004333000000000436700000000043510000000004350000000000435242610000000000037085400000000161967228700000000000000009999123100000010000000000000BRITUBACNPR1366
012026030502DEXP3       010DEXXOS PAR  ON      N1   R$  000000000077000000000007700000000000739000000000074600000000007550000000000738000000000075500526000000000000128400000000000095900000000000000000009999123100000010000000000000BRDEXPACNOR1109
012026030502DEXP4       010DEXXOS PAR  PN      N1   R$  000000000073600000000007360000000000735000000000073500000000007350000000000734000000000074300007000000000000008900000000000006541800000000000000009999123100000010000000000000BRDEXPACNPR8109
012026030502DIRR3       010DIRECIONAL  ON      NM   R$  000000000153100000000015480000000001478000000000149800000000014780000000001478000000000148213977000000000005455900000000008176885800000000000000009999123100000010000000000000BRDIRRACNOR0123
012026030502DMVF3       010D1000VFARMA ON      NM   R$  000000000069300000000006930000000000671000000000068000000000006710000000000671000000000067200195000000000000032900000000000022387400000000000000009999123100000010000000000000BRDMVFACNOR9100
012026030502DOHL4       010DOHLER      PN           R$  000000000037500000000003790000000000375000000000037600000000003790000000000368000000000038000003000000000000000400000000000000150700000000000000009999123100000010000000000000BRDOHLACNPR9067
012026030502LAND3       010TERRASANTAPAON      NM   R$  000000000092100000000009210000000000880000000000089200000000008800000000000880000000000089300161000000000000043500000000000038829500000000000000009999123100000010000000000000BRLANDACNOR9104
012026030502LAVV3       010LAVVI       ON      NM   R$  000000000181500000000018280000000001761000000000178100000000017760000000001773000000000177702674000000000000662500000000001180324200000000000000009999123100000010000000000000BRLAVVACNOR4120
012026030502LEVE3       010METAL LEVE  ON      NM   R$  000000000354100000000035740000000003495000000000351700000000035100000000003510000000000353302114000000000000337800000000001188179900000000000000009999123100000010000000000000BRLEVEACNOR2202
012026030502LJQQ3       010QUERO-QUERO ON      NM   R$  000000000020400000000002150000000000203000000000020700000000002080000000000207000000000020803766000000000008232100000000001708307400000000000000009999123100000010000000000000BRLJQQACNOR5105
012026030502POSI3       010POSITIVO TECON      NM   R$  000000000040300000000004160000000000402000000000040800000000004080000000000407000000000040801816000000000001461300000000000596837700000000000000009999123100000010000000000000BRPOSIACNOR9118
012026030502PRIO3       010PETRORIO    ON  ATZ NM   R$  000000000558000000000057840000000005575000000000570800000000056960000000005694000000000570054626000000000020065800000000114552857400000000000000009999123100000010000000000000BRPRIOACNOR1112
012026030502RANI3       010IRANI       ON      NM   R$  000000000098500000000010120000000000981000000000099400000000009920000000000986000000000099203262000000000001327700000000001320710000000000000000009999123100000010000000000000BRRANIACNOR5079
012026030502SBSP3       010SABESP      ON      NM   R$  000000001494200000000150770000000014534000000001470800000000146160000000014616000000001465212104000000000002105400000000030966682400000000000000009999123100000010000000000000BRSBSPACNOR5165
012026030502FRAS3       010FRAS-LE     ON      N1   R$  000000000242200000000024520000000002380000000000240100000000023990000000002392000000000240001315000000000000250400000000000601271700000000000000009999123100000010000000000000BRFRASACNOR0163
012026030502PETR3       010PETROBRAS   ON      N2   R$  000000000441000000000044260000000004345000000000438600000000043970000000004396000000000440117570000000000013405400000000058807998300000000000000009999123100000010000000000000BRPETRACNOR9212
012026030502PETR4       010PETROBRAS   PN  ATZ N2   R$  000000000405300000000040770000000003998000000000404100000000040690000000004065000000000406957435000000000053079000000000214521293200000000000000009999123100000010000000000000BRPETRACNPR6224
012026030502PFRM3       010PROFARMA    ON      NM   R$  000000000092100000000009210000000000887000000000089600000000008870000000000887000000000089500565000000000000113900000000000102071300000000000000009999123100000010000000000000BRPFRMACNOR1122
012026030502PGMN3       010PAGUE MENOS ON      NM   R$  000000000065600000000006570000000000628000000000063900000000006440000000000641000000000064510241000000000006311600000000004034964100000000000000009999123100000010000000000000BRPGMNACNOR8106
012026030502PINE3       010PINE        ON      N2   R$  000000000110700000000011350000000001099000000000112300000000010990000000001095000000000110800047000000000000018500000000000020781000000000000000009999123100000010000000000000BRPINEACNOR1160
012026030502PINE4       010PINE        PN      N2   R$  000000000110000000000011330000000001090000000000111200000000011200000000001120000000000112403192000000000001848300000000002055533500000000000000009999123100000010000000000000BRPINEACNPR8160
012026030502GEPA3       010GER PARANAP ON           R$  000000000330000000000033010000000003300000000000330000000000033000000000003050000000000330000004000000000000005400000000000017820400000000000000009999123100000010000000000000BRGEPAACNOR2158
012026030502GFSA3       010GAFISA      ON      NM   R$  000000000018800000000001980000000000183000000000018900000000001950000000000193000000000019501662000000000002018000000000000382625600000000000000009999123100000010000000000000BRGFSAACNOR3127
012026030502GGBR3       010GERDAU      ON      N1   R$  000000000173100000000017310000000001651000000000169600000000016880000000001685000000000169500195000000000000029000000000000049203300000000000000009999123100000010000000000000BRGGBRACNOR1198
012026030502GGBR4       010GERDAU      PN      N1   R$  000000000198400000000019840000000001919000000000193700000000019320000000001931000000000193726471000000000010702500000000020736930700000000000000009999123100000010000000000000BRGGBRACNPR8198
012026030502PLPL3       010PLANOEPLANO ON      NM   R$  000000000141900000000014200000000001358000000000137900000000013760000000001376000000000138706661000000000002138600000000002950630000000000000000009999123100000010000000000000BRPLPLACNOR5106
012026030502PNVL3       010DIMED       ON      NM   R$  000000000156200000000015740000000001501000000000152300000000015140000000001512000000000151404726000000000000915200000000001393924500000000000000009999123100000010000000000000BRPNVLACNOR9213
012026030502POMO3       010MARCOPOLO   ON      N2   R$  000000000063500000000006370000000000610000000000062000000000006100000000000610000000000062101889000000000001038200000000000644536800000000000000009999123100000010000000000000BRPOMOACNOR0105
012026030502POMO4       010MARCOPOLO   PN      N2   R$  000000000066500000000006720000000000651000000000065800000000006570000000000656000000000065715943000000000011657900000000007675859100000000000000009999123100000010000000000000BRPOMOACNPR7105
012026030502RAIL3       010RUMO S.A.   ON      NM   R$  000000000156700000000016090000000001530000000000157500000000015620000000001556000000000156230077000000000013865800000000021839960100000000000000009999123100000010000000000000BRRAILACNOR9106
012026030502LOGG3       010LOG COM PROPON      NM   R$  000000000279900000000028400000000002728000000000276600000000027280000000002727000000000272903411000000000000578000000000001599244400000000000000009999123100000010000000000000BRLOGGACNOR7112
012026030502LOGN3       010LOG-IN      ON      NM   R$  000000000328300000000032830000000003190000000000321100000000032060000000003199000000000321000070000000000000008900000000000028582300000000000000009999123100000010000000000000BRLOGNACNOR3105
012026030502LPSB3       010LOPES BRASILON      NM   R$  000000000019900000000002140000000000192000000000020200000000001960000000000195000000000019600538000000000000368000000000000074702200000000000000009999123100000010000000000000BRLPSBACNOR0116
012026030502LREN3       010LOJAS RENNERON      NM   R$  000000000150500000000015180000000001453000000000147700000000014720000000001471000000000147218918000000000011479900000000016958638400000000000000009999123100000010000000000000BRLRENACNOR1228
012026030502MOTV3       010MOTIVA SA   ON      NM   R$  000000000161300000000016280000000001575000000000159200000000015830000000001582000000000158417027000000000008127700000000012943511900000000000000009999123100000010000000000000BRMOTVACNOR7102
012026030502MOVI3       010MOVIDA      ON      NM   R$  000000000141600000000014160000000001312000000000134200000000013330000000001330000000000133309173000000000004644800000000006237035600000000000000009999123100000010000000000000BRMOVIACNOR0126
012026030502MRVE3       010MRV         ON      NM   R$  000000000096400000000009720000000000926000000000094300000000009340000000000933000000000093712182000000000007437700000000007020134600000000000000009999123100000010000000000000BRMRVEACNOR2128
012026030502PDGR3       010PDG REALT   ON      NM   R$  000000000020600000000002110000000000206000000000020800000000002060000000000206000000000020800038000000000000008400000000000001749700000000000000009999123100000010000000000000BRPDGRACNOR8123
012026030502PDTC3       010PADTEC      ON      NM   R$  000000000014900000000001530000000000146000000000014900000000001490000000000149000000000015300026000000000000012700000000000001902400000000000000009999123100000010000000000000BRPDTCACNOR3101
012026030502AVLL3       010ALPHAVILLE  ON      NM   R$  000000000007800000000000780000000000075000000000007600000000000770000000000076000000000007800015000000000000007200000000000000547700000000000000009999123100000010000000000000BRAVLLACNOR5103
012026030502AXIA3       010AXIA ENERGIAON  ATZ N1   R$  000000000607000000000061140000000005877000000000595100000000059270000000005927000000000594434244000000000012216400000000072701532600000000000000009999123100000010000000000000BRAXIAACNOR0103
012026030502AXIA6       010AXIA ENERGIAPNB     N1   R$  000000000662700000000066300000000006438000000000649900000000064580000000006450000000000645805846000000000001180000000000007669328900000000000000009999123100000010000000000000BRAXIAACNPB1103
012026030502AXIA7       010AXIA ENERGIAPNC     N1   R$  000000000585000000000058770000000005689000000000574800000000057020000000005702000000000574410713000000000001992900000000011456157400000000000000009999123100000010000000000000BRAXIAACNPC9100
012026030502HYPE3       010HYPERA      ON      NM   R$  000000000220700000000022100000000002162000000000218000000000021690000000002169000000000218312990000000000003007800000000006557330300000000000000009999123100000010000000000000BRHYPEACNOR0150
012026030502CPFE3       010CPFL ENERGIAON      NM   R$  000000000482900000000048300000000004666000000000470600000000046950000000004689000000000469806490000000000001213700000000005712159900000000000000009999123100000010000000000000BRCPFEACNOR0138
012026030502CPLE3       010COPEL       ON      NM   R$  000000000149400000000014940000000001446000000000145800000000014590000000001458000000000145934042000000000016698500000000024357005700000000000000009999123100000010000000000000BRCPLEACNOR8153
012026030502TUPY3       010TUPY        ON      NM   R$  000000000128100000000013010000000001265000000000128000000000012710000000001271000000000128404543000000000001330000000000001702886800000000000000009999123100000010000000000000BRTUPYACNOR1185
012026030502TASA4       010TAURUS ARMASPN      N2   R$  000000000058900000000006070000000000588000000000059300000000005890000000000586000000000058901106000000000000496200000000000294349000000000000000009999123100000010000000000000BRTASAACNPR4106
012026030502TCSA3       010TECNISA     ON      NM   R$  000000000014700000000001500000000000139000000000014400000000001400000000000140000000000014100272000000000000223300000000000032288300000000000000009999123100000010000000000000BRTCSAACNOR3112
012026030502TECN3       010TECHNOS     ON      NM   R$  000000000084000000000008500000000000815000000000082700000000008150000000000815000000000082300112000000000000027400000000000022671100000000000000009999123100000010000000000000BRTECNACNOR6111
012026030502TELB3       010TELEBRAS    ON           R$  000000000135500000000013550000000001354000000000135400000000013540000000001335000000000135500002000000000000000200000000000000270900000000000000009999123100000010000000000000BRTELBACNOR2142
012026030502TEND3       010TENDA       ON      NM   R$  000000000282100000000028530000000002693000000000276400000000027340000000002721000000000273509149000000000002318000000000006407358900000000000000009999123100000010000000000000BRTENDACNOR4114
012026030502TFCO4       010TRACK FIELD PN      N2   R$  000000000171100000000017110000000001640000000000166600000000016610000000001653000000000166203203000000000000699900000000001166471100000000000000009999123100000010000000000000BRTFCOACNPR8121
012026030502TGMA3       010TEGMA       ON      NM   R$  000000000400000000000040000000000003908000000000393700000000039150000000003912000000000391502354000000000000821400000000003234150400000000000000009999123100000010000000000000BRTGMAACNOR7150
012026030502IRBR3       010IRBBRASIL REON      NM   R$  000000000582500000000058640000000005618000000000570000000000056420000000005642000000000566704341000000000000784100000000004469879800000000000000009999123100000010000000000000BRIRBRACNOR4113
012026030502RECV3       010PETRORECSA  ON      NM   R$  000000000125800000000012860000000001254000000000127400000000012850000000001280000000000128512876000000000007456000000000009506363500000000000000009999123100000010000000000000BRRECVACNOR3110
012026030502REDE3       010REDE ENERGIAON           R$  000000000062800000000006280000000000628000000000062800000000006280000000000629000000000063100001000000000000000100000000000000062800000000000000009999123100000010000000000000BRREDEACNOR7134
012026030502RENT3       010LOCALIZA    ON      NM   R$  000000000494000000000049400000000004659000000000477100000000046900000000004690000000000469343406000000000012463000000000059468856600000000000000009999123100000010000000000000BRRENTACNOR4205
012026030502RENT4       010LOCALIZA    PN      NM   R$  000000000471100000000047360000000004447000000000453600000000044470000000004439000000000445002559000000000000409100000000001855924200000000000000009999123100000010000000000000BRRENTACNPR1100
012026030502GGPS3       010GPS         ON      NM   R$  000000000183000000000018300000000001773000000000179000000000017810000000001776000000000178210063000000000002576800000000004614299200000000000000009999123100000010000000000000BRGGPSACNOR9106
012026030502GMAT3       010GRUPO MATEUSON      NM   R$  000000000054600000000005460000000000515000000000052300000000005180000000000518000000000051911384000000000012990300000000006805676000000000000000009999123100000010000000000000BRGMATACNOR7109
012026030502GOAU3       010GERDAU MET  ON      N1   R$  000000000086500000000008660000000000844000000000085200000000008550000000000850000000000085600337000000000000065200000000000055614000000000000000009999123100000010000000000000BRGOAUACNOR1274
012026030502GOAU4       010GERDAU MET  PN      N1   R$  000000000088000000000008870000000000861000000000086900000000008650000000000865000000000086613819000000000008731100000000007590513800000000000000009999123100000010000000000000BRGOAUACNPR8275
012026030502IFCM3       010INFRACOMM   ON      NM   R$  000000000010500000000001320000000000100000000000011600000000001020000000000102000000000010302282000000000003103200000000000362294800000000000000009999123100000010000000000000BRIFCMACNOR8109
012026030502IGTI11      010IGUATEMI S.AUNT     N1   R$  000000000288300000000028830000000002780000000000280000000000027830000000002782000000000280309304000000000002388100000000006687970600000000000000009999123100000010000000000000BRIGTICDAM16109
012026030502IGTI3       010IGUATEMI S.AON      N1   R$  000000000032800000000003290000000000320000000000032400000000003250000000000325000000000032700062000000000000020000000000000006480700000000000000009999123100000010000000000000BRIGTIACNOR8109
012026030502IGTI4       010IGUATEMI S.APN      N1   R$  000000000127200000000012720000000001272000000000127200000000012720000000001101000000000139900001000000000000000100000000000000127200000000000000009999123100000010000000000000BRIGTIACNPR5109
012026030502RAPT3       010RANDON PART ON      N1   R$  000000000064100000000006430000000000627000000000063800000000006270000000000626000000000063100035000000000000008900000000000005678500000000000000009999123100000010000000000000BRRAPTACNOR7166
012026030502RAPT4       010RANDON PART PN      N1   R$  000000000064300000000006500000000000620000000000062700000000006200000000000620000000000062606146000000000005471700000000003433586500000000000000009999123100000010000000000000BRRAPTACNPR4166
012026030502IBOV11      010IBOVESPA    IBO/         R$  000001805970000000180597000000018059700000001805970000000180597000000000000000000000000000000018000000000000010137000000001830711789000000000000009999123100001000000000000000BRIBOVINDM18016
012026030502CBAV3       010CBA         ON      NM   R$  000000000101200000000010200000000000983000000000100400000000010100000000001008000000000101107720000000000009677500000000009722709300000000000000009999123100000010000000000000BRCBAVACNOR5104
012026030502CBEE3       010AMPLA ENERG ON           R$  000000000099800000000009980000000000998000000000099800000000009980000000000998000000000106300005000000000000000600000000000000598800000000000000009999123100000010000000000000BRCBEEACNOR3163
012026030502CEAB3       010CEA MODAS   ON      NM   R$  000000000120600000000012290000000001167000000000119200000000011910000000001190000000000119119852000000000009460300000000011283809300000000000000009999123100000010000000000000BRCEABACNOR1105
012026030502CSNA3       010SID NACIONALON           R$  000000000079700000000008000000000000751000000000076800000000007510000000000751000000000075219069000000000016286500000000012512769200000000000000009999123100000010000000000000BRCSNAACNOR6264
012026030502EKTR3       010ELEKTRO     ON           R$  000000000489000000000048900000000004890000000000489000000000048900000000004890000000000650000004000000000000000400000000000001956000000000000000009999123100000010000000000000BREKTRACNOR0174
012026030502ITSA3       010ITAUSA      ON  EJ  N1   R$  000000000138300000000013830000000001345000000000135300000000013520000000001345000000000135200379000000000000117800000000000159434500000000000000009999123100000010000000000000BRITSAACNOR0456
012026030502ITSA4       010ITAUSA      PN  EJ  N1   R$  000000000138400000000013840000000001335000000000134600000000013410000000001340000000000134222422000000000029466600000000039670988500000000000000009999123100000010000000000000BRITSAACNPR7456
012026030502KEPL3       010KEPLER WEBERON      NM   R$  000000000084500000000008560000000000823000000000083400000000008230000000000823000000000082604799000000000003295500000000002750165400000000000000009999123100000010000000000000BRKEPLACNOR1069
012026030502KLBN11      010KLABIN S/A  UNT     N2   R$  000000000200000000000020040000000001965000000000197700000000019690000000001969000000000197009138000000000003721400000000007358061900000000000000009999123100000010000000000000BRKLBNCDAM18151
012026030502KLBN3       010KLABIN S/A  ON      N2   R$  000000000040400000000004040000000000394000000000039700000000003950000000000395000000000039800598000000000000429500000000000170647000000000000000009999123100000010000000000000BRKLBNACNOR2179
012026030502KLBN4       010KLABIN S/A  PN      N2   R$  000000000039900000000004010000000000393000000000039500000000003950000000000395000000000039602507000000000002038800000000000806777000000000000000009999123100000010000000000000BRKLBNACNPR9179
012026030502MILS3       010MILLS       ON      NM   R$  000000000150100000000015100000000001478000000000148900000000014900000000001490000000000149102150000000000000483500000000000720062600000000000000009999123100000010000000000000BRMILSACNOR2132
012026030502MLAS3       010MULTILASER  ON      NM   R$  000000000012800000000001310000000000126000000000012800000000001280000000000128000000000012900562000000000000505900000000000065012300000000000000009999123100000010000000000000BRMLASACNOR9102
012026030502MNPR3       010MINUPAR     ON           R$  000000000044500000000004590000000000436000000000044600000000004590000000000441000000000045900111000000000000033100000000000014786200000000000000009999123100000010000000000000BRMNPRACNOR5123
012026030502NEOE3       010NEOENERGIA  ON      NM   R$  000000000327900000000032820000000003271000000000327500000000032780000000003275000000000327801800000000000001766300000000005786205100000000000000009999123100000010000000000000BRNEOEACNOR3127
012026030502NGRD3       010NEOGRID     ON      NM   R$  000000000257600000000027490000000002576000000000267000000000026510000000002650000000000273500036000000000000011200000000000029909100000000000000009999123100000010000000000000BRNGRDACNOR3106
012026030502NORD3       010NORDON MET  ON           R$  000000000041000000000004100000000000410000000000041000000000004100000000000391000000000043700001000000000000000100000000000000041000000000000000009999123100000010000000000000BRNORDACNOR7135
012026030502NUTR3       010NUTRIPLANT  ON      MA   R$  000000000025200000000002520000000000231000000000024400000000002470000000000236000000000024300015000000000000002400000000000000586100000000000000009999123100000010000000000000BRNUTRACNOR0104
012026030502OBTC3       010ORANJEBTC   ON           R$  000000000075900000000007590000000000713000000000072500000000007150000000000715000000000071801283000000000000257600000000000186872800000000000000009999123100000010000000000000BROBTCACNOR0100
012026030502ODPV3       010ODONTOPREV  ON      NM   R$  000000000138500000000014100000000001348000000000137700000000013730000000001360000000000137315317000000000013476800000000018567710000000000000000009999123100000010000000000000BRODPVACNOR4213
012026030502OFSA3       010OUROFINO S/AON      NM   R$  000000000245000000000024500000000002401000000000240300000000024020000000002401000000000244900003000000000000004200000000000010093100000000000000009999123100000010000000000000BROFSAACNOR7122
012026030502ONCO3       010ONCOCLINICASON      NM   R$  000000000021900000000002280000000000214000000000021900000000002150000000000214000000000021505489000000000004374500000000000959886500000000000000009999123100000010000000000000BRONCOACNOR6102
012026030502OPCT3       010OCEANPACT   ON      NM   R$  000000000096700000000009690000000000950000000000095700000000009550000000000955000000000095601963000000000000411900000000000394301800000000000000009999123100000010000000000000BROPCTACNOR0100
012026030502ORVR3       010ORIZON      ON      NM   R$  000000000734500000000073450000000007012000000000705800000000070130000000007000000000000702802919000000000000427900000000003020171700000000000000009999123100000010000000000000BRORVRACNOR0101
012026030502FESA3       010FERBASA     ON      N1   R$  000000000116400000000012200000000001163000000000118100000000011770000000001176000000000125700004000000000000000400000000000000472400000000000000009999123100000010000000000000BRFESAACNOR8194
012026030502FESA4       010FERBASA     PN      N1   R$  000000000078100000000007970000000000772000000000078500000000007840000000000784000000000078602014000000000000652400000000000512317500000000000000009999123100000010000000000000BRFESAACNPR5090
012026030502FHER3       010FER HERINGERON      NM   R$  000000000041300000000004230000000000412000000000041400000000004190000000000411000000000041900017000000000000004300000000000001783700000000000000009999123100000010000000000000BRFHERACNOR5103
012026030502FIQE3       010UNIFIQUE    ON      NM   R$  000000000053600000000005360000000000524000000000052800000000005260000000000526000000000052900961000000000000536000000000000283273200000000000000009999123100000010000000000000BRFIQEACNOR5112
012026030502PCAR3       010P.ACUCAR-CBDON      NM   R$  000000000029400000000003020000000000285000000000029400000000002980000000000298000000000029907437000000000013612400000000004006133000000000000000009999123100000010000000000000BRPCARACNOR3170
012026030502JHSF3       010JHSF PART   ON  ED  NM   R$  000000000093600000000009410000000000896000000000090800000000009030000000000903000000000090710482000000000004826400000000004385532700000000000000009999123100000010000000000000BRJHSFACNOR2157
012026030502FLRY3       010FLEURY      ON      NM   R$  000000000165600000000016650000000001603000000000162200000000016030000000001603000000000160410099000000000003168800000000005140593200000000000000009999123100000010000000000000BRFLRYACNOR5143
012026030502JSLG3       010JSL         ON      NM   R$  000000000080800000000008100000000000767000000000077800000000007780000000000777000000000077802499000000000001524800000000001186380700000000000000009999123100000010000000000000BRJSLGACNOR2123
012026030502ENJU3       010ENJOEI      ON      NM   R$  000000000010300000000001070000000000099000000000010100000000001040000000000102000000000010400925000000000002322300000000000234580400000000000000009999123100000010000000000000BRENJUACNOR9100
012026030502SEQL3       010SEQUOIA LOG ON      NM   R$  000000000003000000000000350000000000029000000000003100000000000300000000000030000000000003101467000000000002275300000000000071586700000000000000009999123100000010000000000000BRSEQLACNOR2108
012026030502SHOW3       010TIME FOR FUNON      NM   R$  000000000045900000000004790000000000453000000000046900000000004770000000000471000000000047800256000000000000039700000000000018652800000000000000009999123100000010000000000000BRSHOWACNOR7106
012026030502SHUL4       010SCHULZ      PN           R$  000000000054800000000005480000000000523000000000052800000000005290000000000524000000000052900515000000000000278100000000000147105100000000000000009999123100000010000000000000BRSHULACNPR4163
012026030502SIMH3       010SIMPAR      ON      NM   R$  000000000120300000000012140000000001163000000000118500000000011830000000001180000000000118410740000000000004378300000000005191631100000000000000009999123100000010000000000000BRSIMHACNOR0110
012026030502SLCE3       010SLC AGRICOLAON      NM   R$  000000000162300000000016350000000001605000000000162100000000016210000000001621000000000163108041000000000002540300000000004118177000000000000000009999123100000010000000000000BRSLCEACNOR2128
012026030502SCAR3       010SAO CARLOS  ON      NM   R$  000000000149600000000014960000000001435000000000145600000000014500000000001443000000000145000090000000000000022100000000000032187200000000000000009999123100000010000000000000BRSCARACNOR7133
012026030502SEER3       010SER EDUCA   ON      NM   R$  000000000118900000000011890000000001095000000000112100000000011130000000001113000000000111405619000000000001086100000000001218565700000000000000009999123100000010000000000000BRSEERACNOR5120
012026030502SYNE3       010SYN PROP TECON      NM   R$  000000000046900000000004750000000000468000000000047100000000004720000000000472000000000047400872000000000000381800000000000179965900000000000000009999123100000010000000000000BRSYNEACNOR2107
012026030502TAEE11      010TAESA       UNT     N2   R$  000000000431900000000043190000000004197000000000423000000000042420000000004235000000000424212936000000000002943600000000012453701600000000000000009999123100000010000000000000BRTAEECDAM10153
012026030502TAEE3       010TAESA       ON      N2   R$  000000000142100000000014270000000001385000000000140000000000014080000000001408000000000141000342000000000000063900000000000089466000000000000000009999123100000010000000000000BRTAEEACNOR9153
012026030502TAEE4       010TAESA       PN      N2   R$  000000000144000000000014460000000001408000000000142100000000014280000000001417000000000142800519000000000000108500000000000154258300000000000000009999123100000010000000000000BRTAEEACNPR6153
012026030502VSTE3       010VESTE       ON      NM   R$  000000000039200000000003920000000000380000000000038300000000003800000000000372000000000038000016000000000000016600000000000006371600000000000000009999123100000010000000000000BRVSTEACNOR5104
012026030502VTRU3       010VITRUEDUCA  ON      NM   R$  000000000138000000000013840000000001353000000000136600000000013680000000001368000000000137001883000000000000270500000000000369685000000000000000009999123100000010000000000000BRVTRUACNOR3101
012026030502VULC3       010VULCABRAS   ON      NM   R$  000000000181300000000018310000000001790000000000180800000000017990000000001796000000000179905586000000000001700100000000003074985700000000000000009999123100000010000000000000BRVULCACNOR2181
012026030502VVEO3       010VIVEO       ON      NM   R$  000000000012200000000001380000000000122000000000013100000000001350000000000134000000000013502036000000000002519600000000000332517300000000000000009999123100000010000000000000BRVVEOACNOR0104
012026030502WDCN3       010WDC NETWORKSON      NM   R$  000000000025500000000002580000000000252000000000025600000000002580000000000252000000000025800016000000000000005400000000000001385000000000000000009999123100000010000000000000BRWDCNACNOR2100
012026030502WEGE3       010WEG         ON      NM   R$  000000000471000000000047470000000004648000000000470400000000046710000000004670000000000469026962000000000007897500000000037156433000000000000000009999123100000010000000000000BRWEGEACNOR0234
012026030502SUZB3       010SUZANO S.A. ON      NM   R$  000000000566400000000057140000000005554000000000561300000000055800000000005580000000000558221369000000000004996300000000028048926000000000000000009999123100000010000000000000BRSUZBACNOR0135
012026030502VIVR3       010VIVER       ON  ES  NM   R$  000000000004500000000000460000000000043000000000004400000000000430000000000043000000000004400079000000000000080200000000000003557800000000000000009999123100000010000000000000BRVIVRACNOR4126
012026030502VIVT3       010TELEF BRASILON  EJ       R$  000000000422200000000042800000000004147000000000417700000000041750000000004174000000000417718779000000000005386700000000022504605800000000000000009999123100000010000000000000BRVIVTACNOR0200
012026030502VLID3       010VALID       ON      NM   R$  000000000212600000000021310000000002070000000000208800000000020810000000002081000000000208901949000000000000329900000000000689157100000000000000009999123100000010000000000000BRVLIDACNOR5148
012026030502RAIZ4       010RAIZEN      PN      N2   R$  000000000006100000000000630000000000059000000000006000000000000590000000000059000000000006015597000000000031845900000000001934643600000000000000009999123100000010000000000000BRRAIZACNPR6112
012026030502SBFG3       010GRUPO SBF   ON      NM   R$  000000000119900000000012090000000001137000000000116000000000011540000000001151000000000115406958000000000002661500000000003088880000000000000000009999123100000010000000000000BRSBFGACNOR1104
012026030502SMTO3       010SAO MARTINHOON      NM   R$  000000000176500000000018380000000001761000000000180300000000018260000000001826000000000183209397000000000003519000000000006346939800000000000000009999123100000010000000000000BRSMTOACNOR3129
012026030502SNSY5       010SANSUY      PNA          R$  000000000026300000000002630000000000252000000000025700000000002520000000000250000000000025500002000000000000000200000000000000051500000000000000009999123100000010000000000000BRSNSYACNPA5111
012026030502SOJA3       010BOA SAFRA   ON      NM   R$  000000000080100000000008090000000000789000000000079500000000007910000000000791000000000079802607000000000001259700000000001001914900000000000000009999123100000010000000000000BRSOJAACNOR9109
012026030502COCE5       010COELCE      PNA          R$  000000000313000000000031970000000003125000000000313700000000031260000000003126000000000321500019000000000000004800000000000015057900000000000000009999123100000010000000000000BRCOCEACNPA3150
012026030502COGN3       010COGNA ON    ON      NM   R$  000000000032800000000003300000000000314000000000032000000000003190000000000318000000000031920998000000000037736500000000012086502400000000000000009999123100000010000000000000BRCOGNACNOR2110
012026030502CTKA4       010KARSTEN     PN           R$  000000000430000000000043390000000004300000000000432900000000043390000000004100000000000446900004000000000000000400000000000001731700000000000000009999123100000010000000000000BRCTKAACNPR7043
012026030502CURY3       010CURY S/A    ON      NM   R$  000000000368100000000037220000000003523000000000358800000000035590000000003559000000000356012594000000000002565700000000009207687800000000000000009999123100000010000000000000BRCURYACNOR3116
012026030502CVCB3       010CVC BRASIL  ON      NM   R$  000000000021500000000002150000000000207000000000021000000000002070000000000207000000000020803808000000000009386300000000001979600900000000000000009999123100000010000000000000BRCVCBACNOR1118
012026030502CXSE3       010CAIXA SEGURION      NM   R$  000000000176500000000017730000000001742000000000175100000000017510000000001750000000000175914021000000000006878100000000012050311600000000000000009999123100000010000000000000BRCXSEACNOR7114
012026030502AERI3       010AERIS       ON      NM   R$  000000000027500000000002750000000000271000000000027300000000002720000000000271000000000027200063000000000000020300000000000005554200000000000000009999123100000010000000000000BRAERIACNOR4102
012026030502AGRO3       010BRASILAGRO  ON      NM   R$  000000000219900000000021990000000002140000000000215900000000021540000000002154000000000216200914000000000000124400000000000268699700000000000000009999123100000010000000000000BRAGROACNOR7116
012026030502ALLD3       010ALLIED      ON      NM   R$  000000000072000000000007200000000000706000000000071200000000007170000000000712000000000071704082000000000000653500000000000465744200000000000000009999123100000010000000000000BRALLDACNOR3110
012026030502ALOS3       010ALLOS       ON      NM   R$  000000000318500000000032090000000003105000000000313500000000031150000000003110000000000311712799000000000003327900000000010433276000000000000000009999123100000010000000000000BRALOSACNOR5119
012026030502BIOM3       010BIOMM       ON      MA   R$  000000000075300000000007550000000000702000000000072500000000007200000000000719000000000072000315000000000000067500000000000048991400000000000000009999123100000010000000000000BRBIOMACNOR2113
012026030502EALT3       010ACO ALTONA  ON           R$  000000000145600000000014560000000001455000000000145500000000014560000000001415000000000145600004000000000000000800000000000001164700000000000000009999123100000010000000000000BREALTACNOR4140
012026030502EALT4       010ACO ALTONA  PN           R$  000000000148500000000014900000000001470000000000147200000000014800000000001471000000000148400032000000000000016800000000000024735300000000000000009999123100000010000000000000BREALTACNPR1140
012026030502ECOR3       010ECORODOVIAS ON      NM   R$  000000000102600000000010270000000000963000000000098000000000009740000000000969000000000097412331000000000006626100000000006494723900000000000000009999123100000010000000000000BRECORACNOR8122
012026030502EGIE3       010ENGIE BRASILON      NM   R$  000000000328400000000032960000000003169000000000319800000000031810000000003180000000000318910682000000000002100000000000006715817200000000000000009999123100000010000000000000BREGIEACNOR9132
012026030502AURE3       010AUREN       ON      NM   R$  000000000119700000000012160000000001155000000000118000000000011550000000001155000000000116016751000000000006941800000000008197013900000000000000009999123100000010000000000000BRAUREACNOR9105
012026030502BRSR3       010BANRISUL    ON      N1   R$  000000000192900000000019520000000001890000000000191500000000019080000000001908000000000192500041000000000000004300000000000008234600000000000000009999123100000010000000000000BRBRSRACNOR3197
012026030502BRSR6       010BANRISUL    PNB     N1   R$  000000000183700000000018410000000001792000000000180600000000018020000000001795000000000180208214000000000002137400000000003861004100000000000000009999123100000010000000000000BRBRSRACNPB4200
012026030502BRST3       010BRISANET    ON      NM   R$  000000000030500000000003060000000000296000000000029900000000002980000000000297000000000029800747000000000000243800000000000072956500000000000000009999123100000010000000000000BRBRSTACNOR9102
012026030502BLAU3       010BLAU        ON      NM   R$  000000000107000000000010950000000001060000000000108000000000010850000000001085000000000108601999000000000000305600000000000330343300000000000000009999123100000010000000000000BRBLAUACNOR8120
012026030502BMEB3       010MERCANTIL   ON      N1   R$  000000000725000000000073000000000006900000000000716400000000072450000000006911000000000735000019000000000000001900000000000013612600000000000000009999123100000010000000000000BRBMEBACNOR8210
012026030502BMEB4       010MERCANTIL   PN      N1   R$  000000000813800000000081480000000007760000000000791900000000079190000000007778000000000793900200000000000000032000000000000253439200000000000000009999123100000010000000000000BRBMEBACNPR5215
012026030502BMGB4       010BANCO BMG   PN      N1   R$  000000000050100000000005060000000000482000000000049000000000004820000000000482000000000048401774000000000001399300000000000686931200000000000000009999123100000010000000000000BRBMGBACNPR0118
012026030502BMIN3       010MERC INVEST ON           R$  000000000219900000000022000000000002199000000000219900000000022000000000002080000000000245000002000000000000000200000000000000439900000000000000009999123100000010000000000000BRBMINACNOR4171
012026030502BMIN4       010MERC INVEST PN           R$  000000000225000000000027490000000002250000000000245700000000025440000000002400000000000254000110000000000000014200000000000034894000000000000000009999123100000010000000000000BRBMINACNPR1177
012026030502BMKS3       010BIC MONARK  ON           R$  000000003830000000000383000000000037201000000003805400000000382090000000037302000000003780000008000000000000000019000000000000723027000000000000009999123100000010000000000000BRBMKSACNOR9169
012026030502BMOB3       010BEMOBI TECH ON      NM   R$  000000000245000000000024500000000002386000000000240700000000023920000000002385000000000240002348000000000000342900000000000825446100000000000000009999123100000010000000000000BRBMOBACNOR7107
012026030502CEBR3       010CEB         ON           R$  000000000313600000000031690000000003136000000000314700000000031680000000003136000000000000000016000000000000002600000000000008182900000000000000009999123100000010000000000000BRCEBRACNOR5129
012026030502CEBR5       010CEB         PNA          R$  000000000297000000000030020000000002969000000000297600000000029990000000002925000000000299900006000000000000000900000000000002679000000000000000009999123100000010000000000000BRCEBRACNPA8128
012026030502CEBR6       010CEB         PNB          R$  000000000301200000000032000000000003010000000000317300000000032000000000003028000000000319000033000000000000018500000000000058705500000000000000009999123100000010000000000000BRCEBRACNPB6128
012026030502CEDO4       010CEDRO       PN      N1   R$  000000000093100000000009310000000000931000000000093100000000009310000000000919000000000093900002000000000000000500000000000000465500000000000000009999123100000010000000000000BRCEDOACNPR5128
012026030502CEEB3       010COELBA      ON           R$  000000000480000000000048000000000004701000000000471700000000047020000000004701000000000481300006000000000000000600000000000002830600000000000000009999123100000010000000000000BRCEEBACNOR3207
012026030502DOTZ3       010DOTZ SA     ON      NM   R$  000000000030300000000003030000000000292000000000029700000000002970000000000294000000000029700026000000000000006000000000000001787800000000000000009999123100000010000000000000BRDOTZACNOR7101
012026030502DXCO3       010DEXCO       ON      NM   R$  000000000051800000000005190000000000490000000000049600000000004930000000000493000000000049408484000000000009544900000000004740350700000000000000009999123100000010000000000000BRDXCOACNOR8108
012026030502ESPA3       010ESPACOLASER ON      NM   R$  000000000011200000000001140000000000110000000000011100000000001130000000000111000000000011300163000000000000150000000000000016733300000000000000009999123100000010000000000000BRESPAACNOR7105
012026030502ETER3       010ETERNIT     ON      NM   R$  000000000039800000000003980000000000393000000000039500000000003930000000000393000000000039800219000000000000043000000000000016996800000000000000009999123100000010000000000000BRETERACNOR3246
012026030502CGAS5       010COMGAS      PNA          R$  000000001340000000000134000000000013155000000001320600000000131760000000013179000000001324500017000000000000001900000000000025092400000000000000009999123100000010000000000000BRCGASACNPA3165
012026030502CGRA3       010GRAZZIOTIN  ON           R$  000000000293200000000029320000000002800000000000283300000000028000000000002750000000000279900004000000000000000400000000000001133200000000000000009999123100000010000000000000BRCGRAACNOR2088
012026030502CGRA4       010GRAZZIOTIN  PN           R$  000000000272400000000027270000000002675000000000270500000000027040000000002681000000000272600032000000000000004200000000000011362600000000000000009999123100000010000000000000BRCGRAACNPR9088
012026030502CLSC4       010CELESC      PN      N2   R$  000000001480000000000148440000000014650000000001472600000000146990000000014623000000001468200026000000000000002600000000000038288600000000000000009999123100000010000000000000BRCLSCACNPR3138
012026030502CSED3       010CRUZEIRO EDUON      NM   R$  000000000064800000000006480000000000619000000000062600000000006260000000000622000000000062601895000000000000684800000000000429116500000000000000009999123100000010000000000000BRCSEDACNOR9107
012026030502CSMG3       010COPASA      ON      NM   R$  000000000537900000000054700000000005271000000000534100000000052940000000005292000000000529411810000000000002447000000000013069717600000000000000009999123100000010000000000000BRCSMGACNOR5183
012026030502EPAR3       010EMBPAR S/A  ON           R$  000000000034700000000003470000000000336000000000033900000000003420000000000339000000000034100007000000000000000800000000000000271800000000000000009999123100000010000000000000BREPARACNOR9107
012026030502EQPA3       010EQTL PARA   ON           R$  000000000064000000000006400000000000635000000000063600000000006350000000000633000000000063900019000000000000003300000000000002100800000000000000009999123100000010000000000000BREQPAACNOR1112
012026030502EQTL3       010EQUATORIAL  ON      NM   R$  000000000412500000000041750000000004041000000000407300000000040500000000004047000000000405019381000000000006045500000000024628631400000000000000009999123100000010000000000000BREQTLACNOR0135
012026030502NATU3       010NATURA      ON      NM   R$  000000000089100000000008940000000000860000000000087100000000008690000000000868000000000087011307000000000005360300000000004671702500000000000000009999123100000010000000000000BRNATUACNOR6137
012026030502PTBL3       010PORTOBELLO  ON      NM   R$  000000000032500000000003280000000000316000000000032100000000003210000000000321000000000032300206000000000000253000000000000081230500000000000000009999123100000010000000000000BRPTBLACNOR8132
012026030502PTNT3       010PETTENATI   ON           R$  000000000084100000000008550000000000841000000000085200000000008550000000000855000000000086900004000000000000000500000000000000426000000000000000009999123100000010000000000000BRPTNTACNOR6044
012026030502PTNT4       010PETTENATI   PN           R$  000000000084000000000008410000000000840000000000084000000000008400000000000840000000000084300065000000000000072500000000000060901000000000000000009999123100000010000000000000BRPTNTACNPR3049
012026030502QUAL3       010QUALICORP   ON      NM   R$  000000000020000000000002090000000000197000000000020500000000002010000000000201000000000020309000000000000007807400000000001604299000000000000000009999123100000010000000000000BRQUALACNOR6122
012026030502RADL3       010RAIADROGASILON      NM   R$  000000000242300000000024800000000002360000000000240100000000023990000000002386000000000240030981000000000014306500000000034356184900000000000000009999123100000010000000000000BRRADLACNOR0165
012026030502RPAD5       010ALFA HOLDINGPNA          R$  000000000063000000000006300000000000630000000000063000000000006300000000000627000000000064000001000000000000000100000000000000063000000000000000009999123100000010000000000000BRRPADACNPA4222
012026030502RPAD6       010ALFA HOLDINGPNB          R$  000000000047000000000004700000000000470000000000047000000000004700000000000456000000000049000001000000000000000700000000000000329000000000000000009999123100000010000000000000BRRPADACNPB2199
012026030502ISAE3       010ISA ENERGIA ON  EJ  N1   R$  000000000332900000000033290000000003260000000000327700000000032600000000003244000000000329700025000000000000002800000000000009178300000000000000009999123100000010000000000000BRISAEACNOR2109
012026030502ISAE4       010ISA ENERGIA PN  EJ  N1   R$  000000000282900000000028400000000002763000000000278800000000027830000000002782000000000279406777000000000001734800000000004837403200000000000000009999123100000010000000000000BRISAEACNPR9109
012026030502JALL3       010JALLESMACHADON      NM   R$  000000000030500000000003170000000000304000000000031200000000003150000000000313000000000031500867000000000001327500000000000414994200000000000000009999123100000010000000000000BRJALLACNOR0106
012026030502RSUL4       010RIOSULENSE  PN           R$  000000000640000000000064000000000006300000000000636600000000063780000000006290000000000638900011000000000000001500000000000009550100000000000000009999123100000010000000000000BRRSULACNPR3116
012026030502RVEE3       010REVEE       ON      NM   R$  000000000014600000000001460000000000142000000000014400000000001420000000000142000000000018900003000000000000000300000000000000043300000000000000009999123100000010000000000000BRRVEEACNOR9102
012026030502MDIA3       010M.DIASBRANCOON      NM   R$  000000000230400000000023330000000002264000000000229000000000022820000000002267000000000228204383000000000000895300000000002050785400000000000000009999123100000010000000000000BRMDIAACNOR7151
012026030502MDNE3       010MOURA DUBEUXON      NM   R$  000000000326500000000032820000000003158000000000321600000000031800000000003180000000000320105957000000000001066200000000003429298400000000000000009999123100000010000000000000BRMDNEACNOR9104
012026030502MEAL3       010IMC S/A     ON      NM   R$  000000000011100000000001140000000000110000000000011100000000001130000000000111000000000011300111000000000000120400000000000013445600000000000000009999123100000010000000000000BRMEALACNOR9105
012026030502MELK3       010MELNICK     ON      NM   R$  000000000039100000000003910000000000379000000000038100000000003820000000000380000000000038201640000000000000403800000000000154215400000000000000009999123100000010000000000000BRMELKACNOR8116
012026030502MGEL4       010MANGELS INDLPN           R$  000000000062400000000006240000000000593000000000059800000000005970000000000585000000000059800023000000000000005700000000000003410000000000000000009999123100000010000000000000BRMGELACNPR3147
012026030502MGLU3       010MAGAZ LUIZA ON      NM   R$  000000000094600000000009590000000000913000000000093000000000009160000000000915000000000091619960000000000020521200000000019097104900000000000000009999123100000010000000000000BRMGLUACNOR2130
012026030502LUPA3       010LUPATECH    ON      NM   R$  000000000011800000000001210000000000118000000000011800000000001200000000000117000000000012000023000000000000034500000000000004092500000000000000009999123100000010000000000000BRLUPAACNOR8112
012026030502LUXM4       010TREVISA     PN           R$  000000000042000000000004200000000000412000000000041300000000004120000000000406000000000041200003000000000000002100000000000000868400000000000000009999123100000010000000000000BRLUXMACNPR4053
012026030502LWSA3       010LWSA        ON      NM   R$  000000000037300000000003870000000000366000000000037400000000003660000000000366000000000037110271000000000009115600000000003416203500000000000000009999123100000010000000000000BRLWSAACNOR8106
012026030502SANB11      010SANTANDER BRUNT          R$  000000000333600000000033360000000003222000000000324400000000032330000000003230000000000323311933000000000003629100000000011773297800000000000000009999123100000010000000000000BRSANBCDAM13172
012026030502SANB3       010SANTANDER BRON           R$  000000000165000000000016760000000001591000000000163200000000016090000000001594000000000160900346000000000000060700000000000099075300000000000000009999123100000010000000000000BRSANBACNOR8179
012026030502SANB4       010SANTANDER BRPN           R$  000000000167100000000016920000000001630000000000164800000000016300000000001630000000000163900397000000000000089200000000000147062900000000000000009999123100000010000000000000BRSANBACNPR5179
012026030502WEST3       010WESTWING    ON      NM   R$  000000000059800000000006130000000000580000000000059500000000006000000000000600000000000061400050000000000000029100000000000017328200000000000000009999123100000010000000000000BRWESTACNOR3101
012026030502WHRL3       010WHIRLPOOL   ON           R$  000000000044200000000004420000000000433000000000043700000000004330000000000432000000000043700008000000000000001100000000000000481500000000000000009999123100000010000000000000BRWHRLACNOR5135
012026030502WHRL4       010WHIRLPOOL   PN           R$  000000000046900000000004750000000000463000000000046800000000004630000000000463000000000046500021000000000000007100000000000003327700000000000000009999123100000010000000000000BRWHRLACNPR2135
012026030502WIZC3       010WIZ CO      ON      NM   R$  000000000095400000000009540000000000928000000000093900000000009360000000000936000000000093802056000000000000551300000000000517709400000000000000009999123100000010000000000000BRWIZCACNOR5104
012026030502WLMM4       010WLM IND COM PN           R$  000000000239900000000023990000000002300000000000231100000000023480000000002270000000000234900013000000000000003300000000000007627700000000000000009999123100000010000000000000BRWLMMACNPR3125
012026030502MATD3       010MATER DEI   ON      NM   R$  000000000061400000000006170000000000596000000000060200000000006050000000000605000000000060600649000000000000122700000000000073988000000000000000009999123100000010000000000000BRMATDACNOR4106
012026030502MBRF3       010MARFRIG     ON      NM   R$  000000000195200000000019540000000001838000000000187200000000018380000000001838000000000183918063000000000009838900000000018420256700000000000000009999123100000010000000000000BRMBRFACNOR1100
012026030502VALE3       010VALE        ON      NM   R$  000000000841300000000084300000000008055000000000816200000000081290000000008125000000000813066957000000000037872100000000309137270000000000000000009999123100000010000000000000BRVALEACNOR0219
012026030502VBBR3       010VIBRA       ON      NM   R$  000000000300200000000030660000000002969000000000300400000000029870000000002987000000000299621617000000000007839100000000023550444800000000000000009999123100000010000000000000BRVBBRACNOR1114
012026030502VITT3       010VITTIA      ON      NM   R$  000000000042300000000004280000000000405000000000041200000000004080000000000407000000000040901014000000000000200300000000000082701200000000000000009999123100000010000000000000BRVITTACNOR4113
012026030502VIVA3       010VIVARA S.A. ON      NM   R$  000000000311100000000031700000000003017000000000309200000000030300000000003030000000000303216421000000000003978000000000012302041900000000000000009999123100000010000000000000BRVIVAACNOR0109
012026030502SAPR11      010SANEPAR     UNT     N2   R$  000000000423100000000042360000000004095000000000412600000000040950000000004094000000000411009093000000000002105100000000008687700400000000000000009999123100000010000000000000BRSAPRCDAM13121
012026030502SAPR3       010SANEPAR     ON      N2   R$  000000000097300000000009730000000000909000000000092400000000009190000000000908000000000091901505000000000000312100000000000288608300000000000000009999123100000010000000000000BRSAPRACNOR9162
012026030502SAPR4       010SANEPAR     PN      N2   R$  000000000081500000000008200000000000796000000000080200000000007990000000000799000000000080004573000000000002487400000000001997115600000000000000009999123100000010000000000000BRSAPRACNPR6162
012026030502SMFT3       010SMART FIT   ON      NM   R$  000000000192500000000019480000000001867000000000190000000000018890000000001889000000000189217520000000000006551000000000012448320500000000000000009999123100000010000000000000BRSMFTACNOR1118
012026030502VAMO3       010VAMOS       ON      NM   R$  000000000043500000000004430000000000425000000000043100000000004280000000000427000000000042814036000000000015298600000000006608703900000000000000009999123100000010000000000000BRVAMOACNOR7109
012026030502UCAS3       010UNICASA     ON      NM   R$  000000000015100000000001520000000000149000000000015000000000001500000000000150000000000015200043000000000000007700000000000001161800000000000000009999123100000010000000000000BRUCASACNOR1114
012026030502UGPA3       010ULTRAPAR    ON      NM   R$  000000000258500000000026600000000002578000000000260600000000025990000000002593000000000260128659000000000011785200000000030716401200000000000000009999123100000010000000000000BRUGPAACNOR8159
012026030502UNIP3       010UNIPAR      ON           R$  000000000647900000000065800000000006311000000000646700000000065800000000006481000000000663000050000000000000006700000000000043331300000000000000009999123100000010000000000000BRUNIPACNOR7210
012026030502UNIP5       010UNIPAR      PNA          R$  000000000691000000000069300000000006910000000000692000000000069300000000006830000000000699000002000000000000000200000000000001384000000000000000009999123100000010000000000000BRUNIPACNPA0212
012026030502UNIP6       010UNIPAR      PNB          R$  000000000690200000000070180000000006795000000000692700000000069300000000006924000000000693002319000000000000638200000000004421097600000000000000009999123100000010000000000000BRUNIPACNPB8210
012026030502USIM3       010USIMINAS    ON      N1   R$  000000000068600000000007060000000000661000000000067600000000006700000000000664000000000067100670000000000000432000000000000292394600000000000000009999123100000010000000000000BRUSIMACNOR3167
012026030502USIM5       010USIMINAS    PNA     N1   R$  000000000068300000000006880000000000658000000000066800000000006660000000000665000000000066811732000000000009439500000000006307293400000000000000009999123100000010000000000000BRUSIMACNPA6172
012026030502YDUQ3       010YDUQS PART  ON      NM   R$  000000000122000000000012400000000001186000000000120700000000012090000000001201000000000121013219000000000004946700000000005973223800000000000000009999123100000010000000000000BRYDUQACNOR3108
012026030502BEEF3       010MINERVA     ON      NM   R$  000000000048400000000004840000000000450000000000046400000000004520000000000451000000000045243058000000000063439300000000029498282700000000000000009999123100000010000000000000BRBEEFACNOR6120
012026030502BRAP3       010BRADESPAR   ON      N1   R$  000000000204400000000020440000000001990000000000200500000000019900000000001990000000000199700360000000000000070100000000000140564900000000000000009999123100000010000000000000BRBRAPACNOR5153
012026030502BRAP4       010BRADESPAR   PN      N1   R$  000000000235000000000023500000000002294000000000231200000000023030000000002302000000000230813559000000000006930200000000016024258900000000000000009999123100000010000000000000BRBRAPACNPR2153
012026030502CMIN3       010CSNMINERACAOON      N2   R$  000000000053700000000005370000000000515000000000052100000000005160000000000515000000000051813362000000000013585700000000007084316300000000000000009999123100000010000000000000BRCMINACNOR2116
012026030502CSUD3       010CSU DIGITAL ON      NM   R$  000000000194000000000019400000000001890000000000191100000000019170000000001903000000000191700166000000000000026500000000000050658500000000000000009999123100000010000000000000BRCSUDACNOR5117
012026030502BBSE3       010BBSEGURIDADEON      NM   R$  000000000344200000000034770000000003372000000000339400000000033720000000003372000000000337519296000000000008461700000000028725381700000000000000009999123100000010000000000000BRBBSEACNOR5128
012026030502BRAV3       010BRAVA       ON  ATZ NM   R$  000000000189000000000019220000000001885000000000189900000000018860000000001886000000000188912775000000000006674000000000012678968500000000000000009999123100000010000000000000BRBRAVACNOR3104
012026030502CYRE3       010CYRELA REALTON      NM   R$  000000000295000000000029630000000002810000000000284700000000028340000000002832000000000283423210000000000006795700000000019353305600000000000000009999123100000010000000000000BRCYREACNOR7143
012026030502CYRE4       010CYRELA REALTPN      NM   R$  000000000280000000000028060000000002648000000000270200000000026620000000002644000000000266202230000000000000425000000000001148606400000000000000009999123100000010000000000000BRCYREACNPR4114
012026030502ENEV3       010ENEVA       ON      NM   R$  000000000207900000000021020000000002029000000000204700000000020310000000002030000000000203723639000000000008518200000000017439394000000000000000009999123100000010000000000000BRENEVACNOR8107
012026030502ENGI11      010ENERGISA    UNT     N2   R$  000000000535400000000053960000000005251000000000530100000000052850000000005284000000000528816025000000000003663200000000019422196200000000000000009999123100000010000000000000BRENGICDAM16140
012026030502ENGI3       010ENERGISA    ON      N2   R$  000000000130300000000013030000000001272000000000128300000000012850000000001274000000000128900021000000000000003200000000000004106400000000000000009999123100000010000000000000BRENGIACNOR0150
012026030502ENGI4       010ENERGISA    PN      N2   R$  000000000102000000000010250000000001000000000000100400000000010000000000001004000000000101200029000000000000005100000000000005124600000000000000009999123100000010000000000000BRENGIACNPR7146
012026030502ALPA3       010ALPARGATAS  ON      N1   R$  000000000121000000000012390000000001167000000000119900000000011930000000001154000000000119300030000000000000007800000000000009357400000000000000009999123100000010000000000000BRALPAACNOR0234
012026030502ALPA4       010ALPARGATAS  PN      N1   R$  000000000138800000000013880000000001306000000000132500000000013130000000001313000000000131906111000000000001994600000000002644318600000000000000009999123100000010000000000000BRALPAACNPR7235
012026030502ANIM3       010ANIMA       ON      NM   R$  000000000048600000000004860000000000449000000000046000000000004530000000000453000000000045407489000000000008581200000000003949409900000000000000009999123100000010000000000000BRANIMACNOR6110
012026030502BAUH4       010EXCELSIOR   PN           R$  000000000929900000000092990000000009299000000000929900000000092990000000000000000000000934000001000000000000000200000000000001859800000000000000009999123100000010000000000000BRBAUHACNPR3119
012026030502BAZA3       010AMAZONIA    ON           R$  000000000875600000000088200000000008600000000000871000000000086000000000008560000000000871000027000000000000003800000000000033099800000000000000009999123100000010000000000000BRBAZAACNOR0180
012026030502BBAS3       010BRASIL      ON  ERJ NM   R$  000000000257500000000025930000000002497000000000252400000000025000000000002500000000000251030235000000000024728700000000062422700800000000000000009999123100000010000000000000BRBBASACNOR3336
012026030502ALPK3       010ESTAPAR     ON      NM   R$  000000000051000000000005100000000000470000000000048500000000004700000000000470000000000047100684000000000000326000000000000158421100000000000000009999123100000010000000000000BRALPKACNOR9101
012026030502ALUP11      010ALUPAR      UNT     N2   R$  000000000346500000000034650000000003345000000000338000000000033620000000003349000000000336405129000000000001091200000000003688725500000000000000009999123100000010000000000000BRALUPCDAM15126
012026030502ALUP3       010ALUPAR      ON      N2   R$  000000000127600000000012760000000001213000000000124200000000012270000000001213000000000122700054000000000000009600000000000011925000000000000000009999123100000010000000000000BRALUPACNOR8126
012026030502ALUP4       010ALUPAR      PN      N2   R$  000000000109700000000011000000000001064000000000107500000000010750000000001064000000000108800083000000000000012800000000000013770200000000000000009999123100000010000000000000BRALUPACNPR5126
012026030502AMAR3       010LOJAS MARISAON      NM   R$  000000000008700000000000890000000000087000000000008700000000000890000000000088000000000008900203000000000000049500000000000004354400000000000000009999123100000010000000000000BRAMARACNOR4115
012026030502AMOB3       010AUTOMOB     ON      NM   R$  000000000130700000000013130000000001247000000000126800000000012750000000001275000000000128300432000000000000166400000000000211119200000000000000009999123100000010000000000000BRAMOBACNOR9101
012026030502BIED3       010BIOMA EDUC  ON      MA   R$  000000000071000000000007530000000000710000000000073100000000007530000000000717000000000075300011000000000000002200000000000001609600000000000000009999123100000010000000000000BRBIEDACNOR2101
012026030502RIAA3       010RIACHUELO   ON      NM   R$  000000000097900000000009790000000000927000000000094200000000009270000000000926000000000093409464000000000003652000000000003442019000000000000000009999123100000010000000000000BRRIAAACNOR2100
012026030502RNEW3       010RENOVA      ON      N2   R$  000000000013100000000001310000000000128000000000012800000000001300000000000127000000000013000053000000000000040200000000000005178900000000000000009999123100000010000000000000BRRNEWACNOR8113
012026030502RNEW4       010RENOVA      PN      N2   R$  000000000012800000000001300000000000124000000000012500000000001240000000000123000000000012400047000000000000043500000000000005466600000000000000009999123100000010000000000000BRRNEWACNPR5113
012026030502ROMI3       010ROMI        ON      NM   R$  000000000081000000000008160000000000803000000000080700000000008080000000000807000000000080800830000000000000185600000000000149953200000000000000009999123100000010000000000000BRROMIACNOR8201
012026030502TOKY3       010GRUPO TOKY  ON      NM   R$  000000000005100000000000520000000000047000000000004900000000000480000000000047000000000004800256000000000000445200000000000022031900000000000000009999123100000010000000000000BRTOKYACNOR5101
012026030502TOTS3       010TOTVS       ON      NM   R$  000000000369300000000037100000000003628000000000366900000000036780000000003671000000000368014494000000000003342900000000012267062300000000000000009999123100000010000000000000BRTOTSACNOR8150
012026030502TPIS3       010TRIUNFO PARTON      NM   R$  000000000069100000000007190000000000677000000000070400000000007190000000000712000000000071900227000000000000077800000000000054775800000000000000009999123100000010000000000000BRTPISACNOR8120
012026030502TRAD3       010TC          ON      NM   R$  000000000023500000000002390000000000216000000000022500000000002260000000000221000000000022600080000000000000034700000000000007829900000000000000009999123100000010000000000000BRTRADACNOR3102
012026030502TRIS3       010TRISUL      ON      NM   R$  000000000072000000000007200000000000690000000000070200000000007110000000000692000000000071101043000000000000343900000000000241611200000000000000009999123100000010000000000000BRTRISACNOR4122
012026030502TTEN3       0103TENTOS     ON      NM   R$  000000000177800000000017800000000001728000000000174000000000017350000000001734000000000173505597000000000000856900000000001491742700000000000000009999123100000010000000000000BRTTENACNOR0105
012026030502AZUL53      010AZUL        ON  P   N2   R$  000000002185100000000221990000000021450000000002170000000000215000000000021470000000002160000508000000006830000000000000000148484656000000000000009999123110000000000000000000BRAZULA01OR8102
012026030502AZZA3       010AZZAS 2154  ON      NM   R$  000000000253800000000026010000000002504000000000253400000000025040000000002504000000000251011302000000000003995900000000010127921100000000000000009999123100000010000000000000BRAZZAACNOR9104
012026030502BBDC3       010BRADESCO    ON  EJ  N1   R$  000000000175000000000017580000000001707000000000172000000000017140000000001711000000000171514204000000000009281800000000015965842900000000000000009999123100000010000000000000BRBBDCACNOR1798
012026030502BBDC4       010BRADESCO    PN  EJ  N1   R$  000000000203700000000020390000000001980000000000199400000000019830000000001983000000000198549313000000000046790000000000093313663800000000000000009999123100000010000000000000BRBBDCACNPR8798
012026030502BEES3       010BANESTES    ON  EJ       R$  000000000087400000000008850000000000862000000000087300000000008750000000000874000000000087900104000000000000012500000000000010919300000000000000009999123100000010000000000000BRBEESACNOR9416
012026030502BEES4       010BANESTES    PN  EJ       R$  000000000089900000000008990000000000890000000000089200000000008900000000000882000000000089600010000000000000001600000000000001427800000000000000009999123100000010000000000000BRBEESACNPR6341
012026030502BSLI3       010BRB BANCO   ON           R$  000000000049000000000004900000000000470000000000048100000000004820000000000471000000000048100067000000000000023800000000000011455200000000000000009999123100000010000000000000BRBSLIACNOR5198
012026030502BSLI4       010BRB BANCO   PN           R$  000000000045000000000004500000000000437000000000044600000000004370000000000435000000000044500095000000000000032800000000000014635700000000000000009999123100000010000000000000BRBSLIACNPR2198
012026030502AALR3       010ALLIAR      ON      NM   R$  000000000051400000000005140000000000456000000000047100000000004560000000000455000000000045600382000000000000252500000000000119026400000000000000009999123100000010000000000000BRAALRACNOR6104
012026030502ABCB4       010ABC BRASIL  PN      N2   R$  000000000267200000000026730000000002594000000000261200000000026230000000002611000000000262302493000000000000499200000000001303949800000000000000009999123100000010000000000000BRABCBACNPR4150
012026030502ABEV3       010AMBEV S/A   ON           R$  000000000154900000000015560000000001526000000000153500000000015290000000001528000000000153521350000000000026954000000000041399551500000000000000009999123100000010000000000000BRABEVACNOR1134
012026030502CMIG3       010CEMIG       ON      N1   R$  000000000152200000000015310000000001499000000000150800000000014990000000001499000000000150400354000000000000059800000000000090183800000000000000009999123100000010000000000000BRCMIGACNOR6251
012026030502CMIG4       010CEMIG       PN      N1   R$  000000000117300000000011790000000001150000000000115900000000011560000000001156000000000115714299000000000010400400000000012054581000000000000000009999123100000010000000000000BRCMIGACNPR3252
012026030502AZEV3       010AZEVEDO     ON           R$  000000000002700000000000300000000000027000000000002800000000000280000000000027000000000002800282000000000001942500000000000054517900000000000000009999123100000010000000000000BRAZEVACNOR0123
012026030502AZEV4       010AZEVEDO     PN           R$  000000000001900000000000200000000000018000000000001900000000000190000000000019000000000002000494000000000005156300000000000100220000000000000000009999123100000010000000000000BRAZEVACNPR7123
012026030502AZTE3       010AZT ENERGIA ON           R$  000000000002800000000000290000000000027000000000002700000000000280000000000027000000000002800215000000000001556900000000000043534600000000000000009999123100000010000000000000BRAZTEACNOR4101
012026030502MTRE3       010MITRE REALTYON      NM   R$  000000000039100000000003940000000000380000000000038400000000003800000000000380000000000038301018000000000000765600000000000294472400000000000000009999123100000010000000000000BRMTREACNOR6131
012026030502MTSA4       010METISA      PN           R$  000000000586400000000061540000000005864000000000604400000000060980000000005649000000000610000015000000000000001500000000000009066100000000000000009999123100000010000000000000BRMTSAACNPR9079
012026030502MULT3       010MULTIPLAN   ON      N2   R$  000000000333000000000033670000000003238000000000327400000000032400000000003239000000000325217248000000000004244600000000013899983700000000000000009999123100000010000000000000BRMULTACNOR5145
012026030502MWET4       010WETZEL S/A  PN           R$  000000000129500000000012970000000001104000000000124100000000012970000000001031000000000128000018000000000000002100000000000002606700000000000000009999123100000010000000000000BRMWETACNPR3118
012026030502MYPK3       010IOCHP-MAXIONON      NM   R$  000000000098000000000009960000000000966000000000097500000000009740000000000971000000000097803927000000000001911100000000001864839400000000000000009999123100000010000000000000BRMYPKACNOR7158
012026030502PRNR3       010PRINER      ON      NM   R$  000000000212400000000021300000000002064000000000208500000000020800000000002080000000000208102539000000000000451100000000000940704800000000000000009999123100000010000000000000BRPRNRACNOR4111
012026030502PSSA3       010PORTO SEGUROON      NM   R$  000000000509700000000051010000000004956000000000499400000000049590000000004955000000000497307823000000000001332400000000006654039800000000000000009999123100000010000000000000BRPSSAACNOR7161
012026030502BRBI11      010BR PARTNERS UNT     N2   R$  000000000190900000000019090000000001819000000000183700000000018410000000001836000000000184901644000000000000232900000000000427881100000000000000009999123100000010000000000000BRBRBICDAM10116
012026030502BRKM3       010BRASKEM     ON      N1   R$  000000000098000000000011400000000000980000000000106100000000011400000000001140000000000114501105000000000000373200000000000396198000000000000000009999123100000010000000000000BRBRKMACNOR1119
012026030502BRKM5       010BRASKEM     PNA     N1   R$  000000000109000000000012700000000001087000000000118500000000012700000000001267000000000127037364000000000022542100000000026715719500000000000000009999123100000010000000000000BRBRKMACNPA4123
012026030502BRKM6       010BRASKEM     PNB     N1   R$  000000000092800000000009880000000000928000000000096100000000009880000000000683000000000098900008000000000000002300000000000002211100000000000000009999123100000010000000000000BRBRKMACNPB2114
012026030502HBOR3       010HELBOR      ON      NM   R$  000000000030300000000003090000000000287000000000029500000000002870000000000287000000000029001519000000000001226500000000000362117500000000000000009999123100000010000000000000BRHBORACNOR3120
012026030502HBRE3       010HBR REALTY  ON      NM   R$  000000000030100000000003040000000000289000000000029500000000002950000000000292000000000029500450000000000000551500000000000163086500000000000000009999123100000010000000000000BRHBREACNOR4101
012026030502HBSA3       010HIDROVIAS   ON      NM   R$  000000000043900000000004390000000000404000000000041700000000004060000000000406000000000041103248000000000001952300000000000814540300000000000000009999123100000010000000000000BRHBSAACNOR0102
012026030502EUCA4       010EUCATEX     PN      N1   R$  000000000215100000000021810000000002109000000000213600000000021420000000002108000000000215000140000000000000018800000000000040174000000000000000009999123100000010000000000000BREUCAACNPR8046
012026030502EVEN3       010EVEN        ON      NM   R$  000000000078400000000007930000000000764000000000077300000000007660000000000764000000000076603030000000000000917900000000000709949600000000000000009999123100000010000000000000BREVENACNOR8121
012026030502EZTC3       010EZTEC       ON      NM   R$  000000000151000000000015180000000001469000000000148200000000014820000000001482000000000148906837000000000002327000000000003450045900000000000000009999123100000010000000000000BREZTCACNOR0132
012026030502CRPG5       010CRISTAL     PNA          R$  000000000180100000000018230000000001800000000000180800000000018000000000001775000000000180000003000000000000000300000000000000542400000000000000009999123100000010000000000000BRCRPGACNPA3119
012026030502CSAN3       010COSAN       ON      NM   R$  000000000060400000000006060000000000571000000000058000000000005710000000000570000000000057338106000000000035970000000000020870584800000000000000009999123100000010000000000000BRCSANACNOR6129
012026030508LIGT3       010LIGHT S/A   ON      NM   R$  000000000049000000000004900000000000473000000000047800000000004750000000000475000000000047900972000000000000499600000000000239178500000000000000009999123100000010000000000000BRLIGTACNOR2125
012026030508PMAM3       010PARANAPANEMAON      NM   R$  000000000006100000000000620000000000057000000000005900000000000580000000000058000000000005900449000000000001790500000000000105813400000000000000009999123100000010000000000000BRPMAMACNOR3046
012026030508NEXP3       010NEXPE       ON           R$  000000000027900000000002790000000000277000000000027800000000002770000000000275000000000028100004000000000000003100000000000000861900000000000000009999123100000010000000000000BRNEXPACNOR0101
012026030508OIBR3       010OI          ON      N1   R$  000000000001700000000000170000000000017000000000001700000000000170000000000016000000000001700159000000000001215100000000000020656700000000000000009999123100000010000000000000BROIBRACNOR1112
012026030508OIBR4       010OI          PN      N1   R$  000000000013500000000001350000000000135000000000013500000000001350000000000135000000000013900003000000000000000400000000000000054000000000000000009999123100000010000000000000BROIBRACNPR8111
012026030508OSXB3       010OSX BRASIL  ON      NM   R$  000000000016900000000001690000000000169000000000016900000000001690000000000168000000000018200002000000000000000300000000000000050700000000000000009999123100000010000000000000BROSXBACNOR8109
012026030508FICT3       010FICTORALIMENON           R$  000000000005700000000000610000000000052000000000005500000000000520000000000052000000000005500108000000000000109700000000000006090700000000000000009999123100000010000000000000BRFICTACNOR3101
012026030508JFEN3       010JOAO FORTES ON           R$  000000000008900000000000890000000000080000000000008200000000000800000000000081000000000008200235000000000000074900000000000006143500000000000000009999123100000010000000000000BRJFENACNOR0061
012026030508CTSA3       010SANTANENSE  ON           R$  000000000024000000000002400000000000240000000000024000000000002400000000000232000000000029400001000000000000000100000000000000024000000000000000009999123100000010000000000000BRCTSAACNOR3063
012026030508AGXY3       010AGROGALAXY  ON      NM   R$  000000000022200000000002230000000000217000000000022000000000002170000000000217000000000022300092000000000000010700000000000002356400000000000000009999123100000010000000000000BRAGXYACNOR4104
012026030508BOBR4       010BOMBRIL     PN           R$  000000000012400000000001240000000000124000000000012400000000001240000000000123000000000012800002000000000000000200000000000000024800000000000000009999123100000010000000000000BRBOBRACNPR3128
012026030508HOOT4       010HOTEIS OTHONPN           R$  000000000070500000000007050000000000705000000000070500000000007050000000000688000000000070900001000000000000000100000000000000070500000000000000009999123100000010000000000000BRHOOTACNPR9015
012026030508RPMG3       010PET MANGUINHON           R$  000000000022900000000002300000000000229000000000022900000000002300000000000224000000000023000002000000000000000200000000000000045900000000000000009999123100000010000000000000BRRPMGACNOR9194
012026030508RSID3       010ROSSI RESID ON      NM   R$  000000000017900000000001790000000000179000000000017900000000001790000000000165000000000018000006000000000000001000000000000000179000000000000000009999123100000010000000000000BRRSIDACNOR8121
012026030508CTAX3       010CONTAX      ON           R$  000000000008300000000000870000000000081000000000008600000000000810000000000081000000000008700009000000000000005500000000000000475200000000000000009999123100000010000000000000BRCTAXACNOR3119
012026030508AMBP3       010AMBIPAR     ON      NM   R$  000000000002400000000000240000000000023000000000002300000000000230000000000023000000000002400496000000000002538200000000000059133500000000000000009999123100000010000000000000BRAMBPACNOR6105
012026030508AMER3       010AMERICANAS  ON      NM   R$  000000000051700000000005220000000000499000000000050800000000005100000000000509000000000051002401000000000001611600000000000819462000000000000000009999123100000010000000000000BRAMERACNOR6103
012026030510DIVS12      010SPARTA DIVS DIR          R$  000000000000400000000000100000000000003000000000000400000000000040000000000003000000000000400044000000000000036924000000000000173380000000000000009999123100000010000000000000BRDIVSD02M17114
012026030510PMAM1       010PARANAPANEMADIR ORD NM   R$  000000000000100000000000010000000000001000000000000100000000000010000000000000000000000000100102000000000000492200000000000000492200000000000000009999123100000010000000000000BRPMAMD10OR9045
012026030510HYPE1       010HYPERA      DIR ORD NM   R$  000000000009100000000000910000000000055000000000007300000000000780000000000070000000000007800708000000000000285900000000000020926600000000000000009999123100000010000000000000BRHYPED02OR3149
012026030510VIVR13      010VIVER       DIR     NM   R$  000000000000100000000000010000000000001000000000000100000000000010000000000000000000000000100094000000000000232700000000000000232700000000000000009999123100000010000000000000BRVIVRD03M15125
012026030510BMEB9       010MERCANTIL   ON  REC N1   R$  000000000670700000000068430000000006500000000000653600000000068430000000006552000000000684400014000000000000002600000000000016995700000000000000009999123100000010000000000000BRBMEBR04OR7209
012026030510BMGB10      010BANCO BMG   PN  REC N1   R$  000000000049300000000004990000000000485000000000049200000000004850000000000483000000000048500026000000000000007300000000000003593300000000000000009999123100000010000000000000BRBMGBR03PR1117
012026030510VGIA12      010FIAGRO VGIA DIR          R$  000000000001100000000000110000000000009000000000001000000000000090000000000009000000000001002580000000000001118944000000000011322211000000000000009999123100000010000000000000BRVGIAD04M12153
012026030510ABCB10      010ABC BRASIL  PN  REC N2   R$  000000000262500000000026490000000002586000000000262000000000026490000000002520000000000262500003000000000000000300000000000000786000000000000000009999123100000010000000000000BRABCBR20PR9149
012026030510AZUL12      010AZUL        DIR     N2   R$  000000001345500000000134550000000011050000000001120000000000111000000000011100000000001188800027000000000098000000000000000001103478000000000000009999123110000000000000000000BRAZULD02M17101
012026030510AZUL14      010AZUL        DIR     N2   R$  000000000480000000000050000000000003840000000000450000000000040500000000004050000000000470000055000000000234000000000000000001071087000000000000009999123110000000000000000000BRAZULD03M16101
012026030510AZUL16      010AZUL        DIR     N2   R$  000000001162000000000120000000000011000000000001110000000000110140000000011000000000001195000020000000000084000000000000000000935184000000000000009999123110000000000000000000BRAZULD04M15101
012026030512AROA11      010FII AROA    CI  ER       R$  000000000011600000000001160000000000113000000000011400000000001130000000000113000000000011600128000000000000009966000000000001140960000000000000009999123100000010000000000000BRAROACTF003139
012026030512ARRI11      010FII ATRIO   CI  ER       R$  000000000068500000000006960000000000684000000000069200000000006950000000000694000000000069500408000000000000017147000000000011866970000000000000009999123100000010000000000000BRARRICTF009183
012026030512ARXD11      010FII ARXD R  CI  ER       R$  000000000079300000000007930000000000782000000000079000000000007850000000000785000000000079300064000000000000009413000000000007438428000000000000009999123100000010000000000000BRARXDCTF008137
012026030512ATSA11      010FII HATRIUM CI  ER       R$  000000000673500000000067350000000006735000000000673500000000067350000000005860000000000670000001000000000000000001000000000000006735000000000000009999123100000010000000000000BRATSACTF000158
012026030512HAAA11      010FII HEDGEAAACI  ER       R$  000000000560000000000056000000000005350000000000543500000000056000000000005356000000000573600025000000000000000083000000000000451138000000000000009999123100000010000000000000BRHAAACTF003164
012026030512HABT11      010FII HABIT IICI  ER       R$  000000000765700000000076860000000007600000000000762700000000076170000000007605000000000761701197000000000000015272000000000116491949000000000000009999123100000010000000000000BRHABTCTF001181
012026030512TJKB11      010FII TJK RENDCI           R$  000000002564100000000256420000000025508000000002558200000000255080000000025508000000002553100033000000000000000234000000000005986282000000000000009999123100000010000000000000BRTJKBCTF006152
012026030512TJKB12      010FII TJK RENDDIR          R$  000000000003600000000000370000000000036000000000003600000000000370000000000007000000000009000005000000000000000036000000000000001321000000000000009999123100000010000000000000BRTJKBD02M10151
012026030512TMPS11      010FII ITAU TEMCI  ER       R$  000000000863800000000087440000000008551000000000861100000000086880000000008574000000000868800271000000000000004170000000000035910864000000000000009999123100000010000000000000BRTMPSCTF003135
012026030512INLG11      010FII INTER LGCI  ER       R$  000000000756600000000075660000000007506000000000752300000000075060000000007505000000000754900279000000000000002417000000000018183758000000000000009999123100000010000000000000BRINLGCTF008118
012026030512INRD11      010FII INTER RDCI  ER       R$  000000000782700000000078490000000007752000000000777700000000077580000000007752000000000775800042000000000000000147000000000001143340000000000000009999123100000010000000000000BRINRDCTF002118
012026030512CACR11      010CARTESIA FIICI  ER       R$  000000000802500000000080250000000007950000000000797900000000079750000000007975000000000799601128000000000000018556000000000148059062000000000000009999123100000010000000000000BRCACRCTF004155
012026030512CARE11      010FII DEA CARECI           R$  000000000052000000000005220000000000500000000000051500000000005220000000000517000000000053000057000000000000001053000000000000542750000000000000009999123100000010000000000000BRCARECTF000113
012026030512HCHG11      010FII HECT CRICI           R$  000000000802700000000080270000000008025000000000802500000000080250000000008025000000000816900003000000000000000625000000000005015638000000000000009999123100000010000000000000BRHCHGCTF001156
012026030512HCRI11      010FII CRIANCA CI           R$  000000002910600000000297000000000028843000000002934900000000295260000000028845000000002959800027000000000000000087000000000002553446000000000000009999123100000010000000000000BRHCRICTF006349
012026030512HCTR11      010FII HECTARE CI           R$  000000000218900000000021910000000002174000000000218000000000021740000000002174000000000218001461000000000000035727000000000077914378000000000000009999123100000010000000000000BRHCTRCTF003189
012026030512HDEL11      010FII HEDGE DVCI           R$  000000001004500000000100450000000010005000000001001200000000100450000000000000000000001000500003000000000000000066000000000000660850000000000000009999123100000010000000000000BRHDELCTF006107
012026030512HFOF11      010FII HTOPFOF3CI  ER       R$  000000000068200000000006840000000000680000000000068100000000006820000000000682000000000068412519000000000000297135000000000202553634000000000000009999123100000010000000000000BRHFOFCTF002212
012026030512HGBL11      010FII HGBL    CI  ER       R$  000000000092700000000009270000000000916000000000092100000000009260000000000919000000000092700087000000000000001662000000000001531096000000000000009999123100000010000000000000BRHGBLCTF005127
012026030512HGBS11      010FII HEDGEBS CI  ER       R$  000000000205400000000020540000000002039000000000204500000000020440000000002044000000000204507023000000000000116366000000000238058337000000000000009999123100000010000000000000BRHGBSCTF000333
012026030512HGCR11      010FII HGCR PAXCI  ER       R$  000000000950000000000095000000000009385000000000940700000000094000000000009400000000000941005684000000000000049492000000000465596013000000000000009999123100000010000000000000BRHGCRCTF000267
012026030512HGIC11      010FII HGI CRI CI           R$  000000000644400000000066490000000006130000000000639100000000061460000000006145000000000650000027000000000000000382000000000002441425000000000000009999123100000010000000000000BRHGICCTF009160
012026030512HGLG11      010FII HGLG PAXCI  ER       R$  000000001583500000000158350000000015766000000001579700000000158000000000015798000000001580011660000000000000059118000000000933925204000000000000009999123100000010000000000000BRHGLGCTF004294
012026030512HGPO11      010FII HGPO PAXCI           R$  000000001497500000000149760000000014924000000001494600000000149240000000014924000000001495000026000000000000000092000000000001375075000000000000009999123100000010000000000000BRHGPOCTF009166
012026030512HGRE11      010FII HGRE PAXCI  ER       R$  000000001311800000000131970000000013101000000001314800000000131080000000013107000000001310801934000000000000018243000000000239862875000000000000009999123100000010000000000000BRHGRECTF006313
012026030512HGRU11      010FII HGRU PAXCI  ER       R$  000000001279800000000128900000000012786000000001282700000000128900000000012874000000001289006199000000000000027089000000000347487622000000000000009999123100000010000000000000BRHGRUCTF002198
012026030512DAMA11      010FII DAMA    CI           R$  000000000070600000000007060000000000701000000000070500000000007010000000000701000000000070500011000000000000000418000000000000294691000000000000009999123100000010000000000000BRDAMACTF007121
012026030512DAYM11      010FII DAYC REMCI           R$  000000000040300000000004100000000000403000000000040300000000004080000000000403000000000040800014000000000000001128000000000000454783000000000000009999123100000010000000000000BRDAYMCTF007107
012026030512RBRY11      010FII RBRY PAXCI           R$  000000000970100000000097500000000009678000000000971100000000096860000000009686000000000970107710000000000000044194000000000429169421000000000000009999123100000010000000000000BRRBRYCTF004188
012026030512RBVA11      010FII RIOB VA CI  ER       R$  000000000098800000000009900000000000977000000000098000000000009800000000000978000000000098005159000000000000233026000000000228593190000000000000009999123100000010000000000000BRRBVACTF006189
012026030512RCRB11      010FII RIOB RC CI  ER       R$  000000001439400000000143940000000014215000000001427900000000142160000000014216000000001429801007000000000000004599000000000065673575000000000000009999123100000010000000000000BRRCRBCTF000178
012026030512RCRI11      010FII RCRI    CI           R$  000000001038000000000103810000000010350000000001036800000000103500000000010324000000001035000296000000000000001427000000000014796353000000000000009999123100000010000000000000BRRCRICTF021107
012026030512RDLI11      010FII RDLI    CI           R$  000000000990000000000099000000000009900000000000990000000000099000000000009500000000000990000002000000000000000002000000000000019800000000000000009999123100000010000000000000BRRDLICTF006103
012026030512DEVA11      010FII DEVANT  CI           R$  000000000250100000000025200000000002489000000000250700000000024890000000002490000000000250200750000000000000016955000000000042513801000000000000009999123100000010000000000000BRDEVACTF000169
012026030512LASC11      010FII LEGATUS CI  ER       R$  000000001150000000000115000000000011500000000001150000000000115000000000011231000000001150000002000000000000000002000000000000023000000000000000009999123100000010000000000000BRLASCCTF003176
012026030512LIFE11      010FII LIFE    CI  ER       R$  000000000088200000000008820000000000868000000000087300000000008720000000000872000000000087606878000000000000059891000000000052304943000000000000009999123100000010000000000000BRLIFECTF017153
012026030512PORD11      010FII POLO CRICI  ER       R$  000000000084000000000008400000000000832000000000083700000000008400000000000835000000000084001052000000000000097971000000000082045600000000000000009999123100000010000000000000BRPORDCTF005195
012026030512PQAG11      010FII PARQ ANHCI  ER       R$  000000000560500000000056050000000005605000000000560500000000056050000000005386000000000564600001000000000000000003000000000000016815000000000000009999123100000010000000000000BRPQAGCTF009169
012026030512PQDP11      010FII D PEDRO CI  ER       R$  000000024209500000002479990000000234510000000024092200000002447900000000244790000000024799900101000000000000000144000000000034692830000000000000009999123100000010000000000000BRPQDPCTF004293
012026030512FMOF11      010FII MEMORIALCI           R$  000000000392000000000039200000000003920000000000392000000000039200000000003920000000000425600001000000000000000001000000000000003920000000000000009999123100000010000000000000BRFMOFCTF010271
012026030512FVPQ11      010FII V PARQUECI  ER       R$  000000000656100000000066100000000006561000000000657000000000066100000000006571000000000661000030000000000000002536000000000016661555000000000000009999123100000010000000000000BRFVPQCTF015278
012026030512FYTO11      010FII FYTO    CI           R$  000000000088100000000008870000000000879000000000088100000000008840000000000879000000000088400364000000000000013865000000000012226042000000000000009999123100000010000000000000BRFYTOCTF008111
012026030512GAME11      010FII GUARD MUCI           R$  000000000091800000000009180000000000898000000000090800000000009150000000000907000000000091500347000000000000024664000000000022401223000000000000009999123100000010000000000000BRGAMECTF002152
012026030512GARE11      010FII GUARDIANCI  ER       R$  000000000085200000000008530000000000846000000000085000000000008480000000000848000000000084947884000000000002261547000000001923714400000000000000009999123100000010000000000000BRGARECTF001127
012026030512GCRI11      010FII GLPG CRICI           R$  000000000681000000000069780000000006791000000000687100000000068620000000006862000000000686300152000000000000002558000000000017576490000000000000009999123100000010000000000000BRGCRICTF008164
012026030512PLAG11      010FII PLAG    CI  ER       R$  000000000628000000000062800000000006200000000000621700000000062800000000006280000000000628801459000000000000008207000000000051029574000000000000009999123100000010000000000000BRPLAGCTF000114
012026030512PLRI11      010FII POLO I  CI           R$  000000000064200000000006420000000000610000000000061400000000006190000000000600000000000061900007000000000000000104000000000000063880000000000000009999123100000010000000000000BRPLRICTF000252
012026030512PMIS11      010FII PMIS    CI  ER       R$  000000000082200000000008280000000000815000000000082200000000008180000000000818000000000082501282000000000000026947000000000022169151000000000000009999123100000010000000000000BRPMISCTF006128
